:020000040800F2
:1000000000000120C1390008E9370008EB3700087B
:10001000ED370008EF370008F13700080000000056
:10002000000000000000000000000000F33700089E
:10003000F537000800000000F7370008F93700081E
:10004000093A0008093A0008093A0008093A000884
:10005000093A0008093A0008093A0008093A000874
:10006000093A0008093A0008093A0008093A000864
:10007000093A0008093A0008093A0008093A000854
:10008000093A0008093A0008093A0008093A000844
:10009000093A0008093A0008093A0008093A000834
:1000A000093A0008093A0008093A0008093A000824
:1000B000093A0008093A0008093A0008093A000814
:1000C000093A0008093A0008093A0008093A000804
:1000D000093A000841390008093A0008093A0008BD
:1000E000093A0008093A0008093A0008093A0008E4
:1000F000093A0008093A0008093A0008093A0008D4
:10010000093A0008093A0008093A0008093A0008C3
:10011000093A0008093A0008093A0008093A0008B3
:10012000093A0008093A0008093A0008093A0008A3
:1001300000000000000000000000000000000000BF
:1001400000000000000000000000000000000000AF
:10015000000000000000000000000000000000009F
:10016000000000000000000000000000000000008F
:10017000000000000000000000000000000000007F
:10018000000000000000000000000000000000006F
:10019000000000000000000000000000000000005F
:1001A000000000000000000000000000000000004F
:1001B000000000000000000000000000000000003F
:1001C000000000000000000000000000000000002F
:1001D000000000000000000000000000000000001F
:0401E0005FF8E0F1F3
:1001E40010B5054C237833B9044B13B10448AFF36D
:1001F40000800123237010BD54040020000000007F
:10020400343B000808B5034B1BB103490348AFF363
:10021400008008BD0000000058040020343B0008A2
:1002240081F0004102E000BF83F0004330B54FEAA3
:1002340041044FEA430594EA050F08BF90EA020F10
:100244001FBF54EA000C55EA020C7FEA645C7FEAA3
:10025400655C00F0E2804FEA5454D4EB5555B8BFC6
:100264006D420CDD2C4480EA020281EA030382EA37
:10027400000083EA010180EA020281EA0303362DC9
:1002840088BF30BD11F0004F4FEA01314FF4801C9C
:100294004CEA113102D0404261EB410113F0004FAE
:1002A4004FEA03334CEA133302D0524263EB430365
:1002B40094EA050F00F0A780A4F10104D5F1200E03
:1002C4000DDB02FA0EFC22FA05F2801841F100015E
:1002D40003FA0EF2801843FA05F359410EE0A5F132
:1002E40020050EF1200E012A03FA0EFC28BF4CF063
:1002F400020C43FA05F3C01851EBE37101F0004519
:1003040007D54FF0000EDCF1000C7EEB00006EEB25
:100314000101B1F5801F1BD3B1F5001F0CD34908AF
:100324005FEA30004FEA3C0C04F101044FEA445206
:1003340012F5800F80F09A80BCF1004F08BF5FEA8D
:10034400500C50F1000041EB045141EA050130BD6D
:100354005FEA4C0C404141EB0101013C28BFB1F57F
:10036400801FE9D291F0000F04BF01460020B1FACA
:1003740081F308BF2033A3F10B03B3F120020CDA9D
:100384000C3208DD02F1140CC2F10C0201FA0CF07B
:1003940021FA02F10CE002F11402D8BFC2F1200CE0
:1003A40001FA02F120FA0CFCDCBF41EA0C01904096
:1003B400E41AA2BF01EB0451294330BD6FEA0404DF
:1003C4001F3C1CDA0C340EDC04F11404C4F12002CA
:1003D40020FA04F001FA02F340EA030021FA04F3DC
:1003E40045EA030130BDC4F10C04C4F1200220FA33
:1003F40002F001FA04F340EA0300294630BD21FA71
:1004040004F0294630BD94F0000F83F4801306BF36
:1004140081F480110134013D4EE77FEA645C18BF2A
:100424007FEA655C29D094EA050F08BF90EA020FC1
:1004340005D054EA000C04BF1946104630BD91EAB9
:10044400030F1EBF0021002030BD5FEA545C05D1BC
:100454004000494128BF41F0004130BD14F58004FB
:100464003CBF01F5801130BD01F0004545F0FE416F
:1004740041F470014FF0000030BD7FEA645C1ABFA4
:10048400194610467FEA655C1CBF0B46024650EADB
:10049400013406BF52EA033591EA030F41F4002107
:1004A40030BD00BF90F0000F04BF0021704730B58D
:1004B4004FF4806404F132044FF000054FF0000162
:1004C40050E700BF90F0000F04BF0021704730B523
:1004D4004FF4806404F1320410F0004548BF4042F8
:1004E4004FF000013EE700BF42004FEAE2014FEA4D
:1004F40031014FEA02701FBF12F07F4393F07F4F28
:1005040081F06051704732F07F4208BF704793F02A
:100514007F4F04BF41F40021704730B54FF460743D
:1005240001F0004521F000411CE700BF50EA010240
:1005340008BF704730B54FF000050AE050EA0102E9
:1005440008BF704730B511F0004502D5404261EB59
:1005540041014FF4806404F132045FEA915C3FF49A
:10056400D8AE4FF003025FEADC0C18BF03325FEA37
:10057400DC0C18BF033202EBDC02C2F1200300FAE8
:1005840003FC20FA02F001FA03FE40EA0E0021FA0D
:1005940002F11444BDE600BF70B54FF0FF0C4CF4FB
:1005A400E06C1CEA11541DBF1CEA135594EA0C0FAD
:1005B40095EA0C0F00F0DEF82C4481EA030621EAE8
:1005C4004C5123EA4C5350EA013518BF52EA033523
:1005D40041F4801143F4801338D0A0FB02CE4FF0D5
:1005E4000005E1FB02E506F00042E0FB03E54FF005
:1005F4000006E1FB03569CF0000F18BF4EF0010EFD
:10060400A4F1FF04B6F5007F64F5407404D25FEAF8
:100614004E0E6D4146EB060642EAC62141EA5551AB
:100624004FEAC52040EA5E504FEACE2EB4F1FD0CED
:1006340088BFBCF5E06F1ED8BEF1004F08BF5FEA6B
:10064400500E50F1000041EB045170BD06F000461D
:1006540046EA010140EA020081EA0301B4EB5C04CA
:10066400C2BFD4EB0C0541EA045170BD41F48011C2
:100674004FF0000E013C00F3AB8014F1360FDEBFE7
:10068400002001F0004170BDC4F10004203C35DAC3
:100694000C341BDC04F11404C4F1200500FA05F346
:1006A40020FA04F001FA05F240EA020001F00042E7
:1006B40021F0004110EBD37021FA04F642EB06015D
:1006C4005EEA430E08BF20EAD37070BDC4F10C0487
:1006D400C4F1200500FA04F320FA05F001FA04F24B
:1006E40040EA020001F0004110EBD37041F1000137
:1006F4005EEA430E08BF20EAD37070BDC4F1200542
:1007040000FA05F24EEA020E20FA04F301FA05F2A9
:1007140043EA020321FA04F001F0004121FA04F251
:1007240020EA020000EBD3705EEA430E08BF20EA21
:10073400D37070BD94F0000F0FD101F0004640005B
:1007440041EB010111F4801F08BF013CF7D041EADD
:10075400060195F0000F18BF704703F000465200E1
:1007640043EB030313F4801F08BF013DF7D043EAB2
:100774000603704794EA0C0F0CEA135518BF95EA68
:100784000C0F0CD050EA410618BF52EA4306D1D1EF
:1007940081EA030101F000414FF0000070BD50EA0E
:1007A400410606BF1046194652EA430619D094EA98
:1007B4000C0F02D150EA013613D195EA0C0F05D182
:1007C40052EA03361CBF104619460AD181EA0301D6
:1007D40001F0004141F0FE4141F470014FF000008E
:1007E40070BD41F0FE4141F4780170BD70B54FF029
:1007F400FF0C4CF4E06C1CEA11541DBF1CEA1355A9
:1008040094EA0C0F95EA0C0F00F0A7F8A4EB05048A
:1008140081EA030E52EA03354FEA013100F0888081
:100824004FEA03334FF0805545EA131343EA12634A
:100834004FEA022245EA111545EA10654FEA0026FF
:100844000EF000419D4208BF964244F1FD0404F5B8
:10085400407402D25B084FEA3202B61A65EB030514
:100864005B084FEA32024FF480104FF4002CB6EBD1
:10087400020E75EB030E22BFB61A754640EA0C0051
:100884005B084FEA3202B6EB020E75EB030E22BF91
:10089400B61A754640EA5C005B084FEA3202B6EBD2
:1008A400020E75EB030E22BFB61A754640EA9C0091
:1008B4005B084FEA3202B6EB020E75EB030E22BF61
:1008C400B61A754640EADC0055EA060E18D04FEA1F
:1008D400051545EA16754FEA06164FEAC30343EABF
:1008E40052734FEAC2025FEA1C1CC0D111F4801F8C
:1008F4000BD141EA00014FF000004FF0004CB6E785
:1009040011F4801F04BF01430020B4F1FD0C88BF23
:10091400BCF5E06F3FF6AFAEB5EB030C04BFB6EB2E
:10092400020C5FEA500C50F1000041EB045170BD21
:100934000EF0004E4EEA113114EB5C04C2BFD4EB4E
:100944000C0541EA045170BD41F480114FF0000ED2
:10095400013C90E645EA060E8DE60CEA135594EA4E
:100964000C0F08BF95EA0C0F3FF43BAF94EA0C0F51
:100974000AD150EA01347FF434AF95EA0C0F7FF4C6
:1009840025AF104619462CE795EA0C0F06D152EA1A
:1009940003353FF4FDAE1046194622E750EA4106FE
:1009A40018BF52EA43067FF4C5AE50EA41047FF40F
:1009B4000DAF52EA43057FF4EBAE12E74A0011D2C1
:1009C40012F5001211D20DD56FF47873B3EB6252A5
:1009D4000ED44FEAC12343F0004343EA505323FAB1
:1009E40002F070474FF00000704750EA013002D126
:1009F4004FF0FF3070474FF00000704780F0004028
:100A040002E000BF81F0004142001FBF5FEA4103E2
:100A140092EA030F7FEA226C7FEA236C6AD04FEAE2
:100A24001262D2EB1363C1BFD21841404840414027
:100A3400B8BF5B42192B88BF704710F0004F40F4D9
:100A4400000020F07F4018BF404211F0004F41F4F5
:100A5400000121F07F4118BF494292EA030F3FD0C1
:100A6400A2F1010241FA03FC10EB0C00C3F12003D4
:100A740001FA03F100F0004302D5494260EB400063
:100A8400B0F5000F13D3B0F1807F06D340084FEACE
:100A9400310102F10102FE2A51D2B1F1004F40EBC3
:100AA400C25008BF20F0010040EA0300704749002B
:100AB40040EB0000013A28BFB0F5000FEDD2B0FAC8
:100AC40080FCACF1080CB2EB0C0200FA0CF0AABFEB
:100AD40000EBC25052421843BCBFD0401843704789
:100AE40092F0000F81F4000106BF80F4000001328F
:100AF400013BB5E74FEA41037FEA226C18BF7FEA66
:100B0400236C21D092EA030F04D092F0000F08BFA7
:100B14000846704790EA010F1CBF0020704712F08E
:100B24007F4F04D1400028BF40F00040704712F1CD
:100B340000723CBF00F50000704700F0004343F032
:100B4400FE4040F4000070477FEA226216BF084668
:100B54007FEA23630146420206BF5FEA412390EA2B
:100B6400010F40F4800070474FF0000304E000BF21
:100B740010F0004348BF40425FEA000C08BF7047D2
:100B840043F0964301464FF000001CE050EA010296
:100B940008BF70474FF000030AE000BF50EA0102AB
:100BA40008BF704711F0004302D5404261EB410198
:100BB4005FEA010C02BF84460146002043F0B643BD
:100BC40008BFA3F18053A3F50003BCFA8CF2083AE2
:100BD400A3EBC25310DB01FA02FC634400FA02FCEB
:100BE400C2F12002BCF1004F20FA02F243EB0200F2
:100BF40008BF20F00100704702F1200201FA02FC54
:100C0400C2F1200250EA4C0021FA02F243EB020046
:100C140008BF20EADC70704710B504460E4B187804
:100C24004FF47A73B3FBF0F30C4A1068B0FBF3F0A3
:100C340000F096F868B90F2C01D901200AE00022CF
:100C440021464FF0FF3000F057F8054B1C600020A0
:100C540000E0012010BD00BF00000020240000209F
:100C64000400002008B5074A136843F0100313601A
:100C7400032000F02FF80F20FFF7CEFF02F090FDC5
:100C8400002008BD00200240034A1168034B1B7872
:100C94000B441360704700BF700400200000002064
:100CA400014B1868704700BF7004002038B5044633
:100CB400FFF7F6FF0546B4F1FF3F02D0044B1B7863
:100CC4001C44FFF7EDFF401BA042FAD338BD00BF20
:100CD40000000020074AD36823F4E0631B041B0CC4
:100CE400000200F4E060034343F0BF6343F40033C5
:100CF400D360704700ED00E030B4174BDB68C3F3FA
:100D04000223C3F10704042C28BF04241D1D062D4F
:100D140018D9033B4FF0FF3505FA04F421EA040126
:100D2400994005FA03F322EA0303194300280BDB75
:100D34000901C9B200F1604000F5614080F8001378
:100D440030BC70470023E5E700F00F000901C9B289
:100D5400024B1954F4E700BF00ED00E014ED00E08D
:100D64000138B0F1807F0AD2064B5860064AF02160
:100D740082F823100020986007221A60704701202F
:100D8400704700BF10E000E000ED00E0042805D04B
:100D9400054A136823F0040313607047024A13687A
:100DA40043F004031360704710E000E090F8213032
:100DB400DBB2022B06D004238363002380F82030A7
:100DC400012070470268136823F00E031360026861
:100DD400136823F001031360036CC16B012202FA50
:100DE40003F34B6080F82120002380F8203018465C
:100DF4007047000008B590F82130DBB2022B03D015
:100E040004238363012008BD0268136823F00E03E2
:100E140013600268136823F00103136003684C4AEB
:100E240093424ED9783A934224D01432934230D02C
:100E3400143293422FD0143293422FD0143293425F
:100E44002FD0143293422FD0143293422FD002F574
:100E5400627293422ED0143293422DD014329342B4
:100E64002CD01432934202D04FF4803203E04FF47A
:100E7400805200E00122374B5A60012380F8213070
:100E8400002380F82030436B002B5ED0984700206D
:100E9400B9E71022EFE74FF48072ECE74FF4805289
:100EA400E9E74FF48032E6E74FF48012E3E74FF0CE
:100EB4008072E0E70122DEE71022DCE74FF4807263
:100EC400D9E7254A934224D01432934225D01432D0
:100ED400934224D01432934224D01432934224D027
:100EE4001432934224D01432934224D002F5627215
:100EF400934223D01432934222D01432934221D00D
:100F04001432934202D04FF4803203E04FF4805203
:100F140000E00122114B5A60AFE71022FAE74FF4C8
:100F24008072F7E74FF48052F4E74FF48032F1E730
:100F34004FF48012EEE74FF08072EBE70122E9E70D
:100F44001022E7E74FF48072E4E700205BE700BF7C
:100F540080000240000402400800024000000240F9
:100F6400F0B482B000252C46ABE0854FBB4210D0D4
:100F740007D9844FBB420CD007F58037BB4208D059
:100F840013E0A7F58017BB4203D007F57027BB42D7
:100F940007D18B68002B60D0012B59D04261082502
:100FA40003E0A7F58017BB42F3D0FF2E57D8844641
:100FB400FF2E57D8A200DCF800300F27974023EA11
:100FC400070305FA02F21343CCF800304B6813F020
:100FD400805F75D06C4B9A6942F001029A619B69FB
:100FE40003F001030193019BA208971C674B53F87C
:100FF40027C004F003039F000F23BB402CEA030C1B
:10100400634B984234D003F58063984200F0948097
:1010140003F58063984200F0918003F58063984261
:1010240000F08E8003F58063984200F08B8003F516
:10103400806398421AD006231BE0CD68B5E7CD68DB
:101044000435B2E7CD680835AFE7CD680C35ACE7B9
:1010540002610825A9E70025A7E70425A5E700F113
:10106400040CA5E7A4F108029200A4E7052300E01C
:101074000023BB4043EA0C030232444F47F82230BA
:101084004B6813F4801F5FD0424A936833439360E4
:101094004B6813F4001F5DD03E4AD3683343D360DA
:1010A4004B6813F4003F5BD03A4A536833435360B0
:1010B4004B6813F4803F59D0364A13681E431660B8
:1010C40001340B6833FA04F256D00122A24003EA39
:1010D400020632EA0303F3D14B68122B3FF645AF05
:1010E400122B3FF662AF01A757F823F0970F0008C1
:1010F4003F100008491000085B100008AF0F0008FB
:10110400AF0F0008AF0F0008AF0F0008AF0F0008C3
:10111400AF0F0008AF0F0008AF0F0008AF0F0008B3
:10112400AF0F0008AF0F0008AF0F0008AF0F0008A3
:10113400431000084F10000801239AE7022398E7A0
:10114400032396E7042394E7124A936823EA0603E9
:1011540093609DE70F4AD36823EA0603D3609FE7B1
:101164000C4A536823EA06035360A1E7094A13684B
:1011740023EA06061660A3E702B0F0BC704700BF7E
:101184000000221000003110001002400000014055
:1011940000080140000401408368194201D0012085
:1011A4007047002070470AB101617047090401616A
:1011B400704703685A6912F4806F01D100207047A8
:1011C4006FF480625A6100230363202280F83D207B
:1011D40080F83E30026C42F00402026480F83C3035
:1011E400012070472DE9F04780460D461646994682
:1011F40040E0FFF755FD089BC01A484502D8B9F1F5
:10120400000F37D1012F1CD0D8F800309B6925EA94
:1012140003039BB2B3FA83F35B099A452AD10023F3
:10122400C8F83030202288F83D2088F83E30D8F8BD
:10123400402042F02002C8F8402088F83C300120C9
:1012440027E0D8F800305B6925EA03039BB2B3FAC0
:1012540083F35B09E1E7D8F800309C6925EA0404CC
:10126400A4B2B4FA84F46409B246A64210D1B9F126
:10127400FF3FBED1C5F30747012FECD1D8F80030AA
:101284005C6925EA0404A4B2B4FA84F46409EBE7C3
:101294000020BDE8F0872DE9F84305460E46904648
:1012A400994653E01A6842F400721A602B686FF48E
:1012B40080625A6100232B63202285F83D2085F843
:1012C4003E302A6C42F004022A6485F83C30012046
:1012D4004AE0FFF7E5FCA0EB0900404502D8B8F16D
:1012E400000F33D1012F17D02B689B6926EA030323
:1012F4009BB2003B18BF012343B300232B6320227E
:1013040085F83D2085F83E302A6C42F020022A649C
:1013140085F83C30012027E02B685B6926EA03034B
:101324009BB2003B18BF0123E6E72B689C6926EAC1
:101334000404A4B2003C18BF0124A4B12B685A6968
:1013440012F4806FAED1B8F1FF3FC2D1C6F30747A4
:10135400012FEAD12B685C6926EA0404A4B2003C9C
:1013640018BF0124E9E70020BDE8F88370B50446FE
:101374000D46164623685B6913F0800F21D1204681
:10138400FFF717FFF8B9B5F1FF3FF3D0FFF788FC7B
:10139400801BA84201D8002DECD123685B6913F0AF
:1013A400800FE7D100232363202284F83D2084F8B2
:1013B4003E30226C42F02002226484F83C3001204A
:1013C40000E0002070BD0120FCE700002DE9F0439F
:1013D40085B004460D4691461F46DDF830800D9ECB
:1013E4000368196841F4807119600096434600222D
:1013F4004FF00111FFF7F6FE60B9236805F0FE0512
:101404001D613346424626492046FFF744FF68B132
:10141400012008E023681B6813F4807F02D04FF496
:1014240000732364032005B0BDE8F0830023039315
:1014340023685A6903929B690393039B324641468E
:101444002046FFF793FF30B9012F0FD123685FFACD
:1014540089F61E61E7E7236C042B01D00120E2E743
:101464002268136843F400731360F7E723684FEAB4
:1014740019221A61324641462046FFF777FF20B908
:1014840023685FFA89F61E61CDE7236C042B01D033
:101494000120C8E72268136843F400731360F7E778
:1014A4000200010070B504460D46164623685B69C8
:1014B40013F0040F21D12046FFF77BFEF8B9B5F1F4
:1014C400FF3FF3D0FFF7ECFB801BA84201D8002DAF
:1014D400ECD123685B6913F0040FE7D10023236385
:1014E400202284F83D2084F83E30226C42F0200211
:1014F400226484F83C30012000E0002070BD01200B
:10150400FCE70000002800F0CC80F8B5044690F811
:101514003D30002B77D0242384F83D3022681368B3
:1015240023F0010313602268136843F4004313603B
:101534002268136823F40043136000F07DFC6268A2
:101544005A4B9A4264D85A4B98428CBF00230123C9
:10155400002B40F0A880574DA5FB0035AF0C266842
:10156400716821F03F0141EA9541716021680B6A7D
:1015740023F03F0365684D4A95424FD87A1C1343C4
:101584000B622568E96921F44F4121F0FF0163688A
:10159400464A93424CD801385B00B0FBF3F001306B
:1015A40040F6FC73184278D0C0F30B030B43EB6195
:1015B40021680B6823F0C003E269206A02431343E5
:1015C4000B6021688B6823F4034323F0FF03226933
:1015D400E068024313438B602168CB6823F0FF0368
:1015E4006269A06902431343CB602268136843F025
:1015F4000103136000202064202384F83D3020631D
:1016040084F83E00F8BD80F83C3001F0E9FB82E745
:10161400294B98428CBF0023012399E74FF496721B
:1016240002FB07F2254DA5FB025292090132A6E7FF
:10163400A268BAB9461E03EB4307B6FBF7F60136B8
:10164400C6F30B06B6FA86F6760946BBC2B9421E45
:1016540003EB4303B2FBF3F20132C2F30B0242F495
:101664000043A3E7461E03EB830707EB8707B6FB9C
:10167400F7F60136C6F30B06B6FA86F67609E4E702
:10168400421E03EB830303EB8303B2FBF3F2013249
:10169400C2F30B0242F4404388E7042386E70123A4
:1016A40084E7012070470120ACE700BFA086010059
:1016B4007F841E0083DE1B43FF083D00D34D621070
:1016C4002DE9F04383B004460F46904699460C9E9C
:1016D400FFF7E6FA054694F83D00C0B2202803D08F
:1016E400022003B0BDE8F0830095192301224B4981
:1016F4002046FFF777FD002840F0898094F83C30BD
:10170400012B00F08680012384F83C3023681A689A
:1017140012F0010F03D11A6842F001021A60226824
:10172400136823F400631360212384F83D304023BD
:1017340084F83E30002323640A9B6362BDF82C3096
:101744006385638D2385364BE362019500964B4692
:10175400424639462046FFF739FE00285BD1238DE7
:10176400002B35D02A4631462046FFF7FFFD20BB2B
:10177400626A236812781A61616A4B1C6362228D63
:10178400013A92B22285638D9BB2013B9BB2638581
:101794002368586910F0040FE1D0002ADFD04A789A
:1017A4001A61636A01336362238D013B2385638D70
:1017B4009BB2013B9BB26385D1E7236C042B01D020
:1017C40001208EE72268136843F400731360F7E77F
:1017D4002A4631462046FFF765FE50B1236C042BA0
:1017E40001D001207DE72268136843F4007313607D
:1017F400F7E72268136843F400731360202384F826
:101804003D30002384F83E3084F83C3069E7022000
:1018140067E7022065E7012063E700BF02001000CC
:101824000000FFFF014B01221A60704720000E42A6
:1018340082B0084B1B68084AA2FB03235B0A00FB27
:1018440003F3019300BF019B5A1E0192002BF9D1AF
:1018540002B0704724000020D34D6210002800F02D
:10186400F18170B582B00446036813F0010F2CD0E7
:10187400AA4B5B6803F00C03042B1DD0A74B5B68D9
:1018840003F00C03082B12D06368B3F5803F41D0FA
:10189400002B55D103F1804303F504331A6822F475
:1018A40080321A601A6822F480221A6037E09B4B57
:1018B4005B6813F4803FE7D0984B1B6813F4003F38
:1018C40003D06368002B00F0BF81236813F0020F7C
:1018D40075D0924B5B6813F00C0F5FD08F4B5B6835
:1018E40003F00C03082B54D02369002B00F08980EB
:1018F4008B4B01221A60FFF7D3F90546874B1B680F
:1019040013F0020F74D1FFF7CBF9401B0228F5D96D
:1019140003209EE1814A136843F4803313606368B3
:1019240043B3FFF7BDF905467C4B1B6813F4003F36
:10193400CBD1FFF7B5F9401B6428F5D9032088E122
:10194400B3F5A02F09D0754B1A6822F480321A60BF
:101954001A6822F480221A60E1E703F18043A3F5B8
:101964003C331A6842F480221A601A6842F48032C6
:101974001A60D4E7FFF794F90546684B1B6813F423
:10198400003FA2D0FFF78CF9401B6428F5D903204F
:101994005FE1624B5B6813F4803FA5D15F4B1B682A
:1019A40013F0020F03D02369012B40F04F815B4AEF
:1019B400136823F0F803616943EAC10313602368E1
:1019C40013F0080F32D0A369002B45D0554B0122E8
:1019D4001A60FFF765F90546504B5B6A13F0020F76
:1019E40021D1FFF75DF9401B0228F5D9032030E12E
:1019F4004A4A136823F0F803616943EAC103136098
:101A0400DDE7474B00221A60FFF74AF90546434BCE
:101A14001B6813F0020FD2D0FFF742F9401B0228D3
:101A2400F5D9032015E10120FFF702FF236813F025
:101A3400040F00F09780394BDB6913F0805F1DD1F0
:101A4400364BDA6942F08052DA61DB6903F0805385
:101A54000193019B012512E0324B00221A60FFF72B
:101A64001FF905462D4B5B6A13F0020FDED0FFF71A
:101A740017F9401B0228F5D90320EAE000252A4B78
:101A84001B6813F4807F11D0E368012B22D0002B54
:101A940038D103F1804303F504331A6A22F00102BA
:101AA4001A621A6A22F004021A6218E01E4A1368C3
:101AB40043F480731360FFF7F3F806461A4B1B6870
:101AC40013F4807FE0D1FFF7EBF8801B6428F5D98D
:101AD4000320BEE0114A136A43F001031362E36872
:101AE40073B3FFF7DDF806460C4B1B6A13F0020FC5
:101AF40037D1FFF7D5F8801B41F288339842F3D9E8
:101B04000320A6E0052B11D0044B1A6A22F001022F
:101B14001A621A6A22F004021A62E0E70010024014
:101B24000000424280044242007000404D4B1A6A59
:101B340042F004021A621A6A42F001021A62CEE703
:101B4400FFF7AEF80646474B1B6A13F0020F08D0A6
:101B5400FFF7A6F8801B41F288339842F3D903209B
:101B640077E0E5B9E369002B72D03E4A526802F08F
:101B74000C02082A56D0022B17D03B4B00221A60C5
:101B8400FFF78EF80446374B1B6813F0007F47D0ED
:101B9400FFF786F8001B0228F5D9032059E0314AE3
:101BA400D36923F08053D361DCE72F4B00221A6002
:101BB400FFF776F805462B4B1B6813F0007F06D021
:101BC400FFF76EF8401B0228F5D9032041E0236A91
:101BD400B3F5803F1AD023494B6823F47413226A67
:101BE400606A024313434B601F4B01221A60FFF7E4
:101BF40057F804461B4B1B6813F0007F0ED1FFF708
:101C04004FF8001B0228F5D9032022E0154A536837
:101C140023F40033A1680B435360DCE7002018E091
:101C2400002016E0012B16D00E4B5B6803F48031C4
:101C3400226A914211D103F47013626A93420ED165
:101C4400002006E001207047012002E0012000E0AE
:101C5400002002B070BD0120FBE70120F9E701205C
:101C6400F7E700BF00100240600042420F4B5B6880
:101C740003F00C02082A01D00D487047C3F38342D5
:101C84000C498A5C13F4803F0BD0084B5B68C3F3A8
:101C940040430949CB5C064800FB02F0B0FBF3F07B
:101CA4007047064800FB02F0704700BF0010024076
:101CB40000127A004C3B00085C3B000800093D0020
:101CC400002800F0A08070B50D460446524B1B68F6
:101CD40003F007038B420BD24F4A136823F0070328
:101CE4000B431360136803F007038B4240F08D80AD
:101CF400236813F0020F17D013F0040F04D0474ADF
:101D0400536843F4E0635360236813F0080F04D06E
:101D1400424A536843F460535360404A536823F083
:101D2400F003A1680B435360236813F0010F31D013
:101D34006368012B20D0022B25D0384A126812F098
:101D4400020F64D035494A6822F0030213434B6002
:101D5400FEF7A6FF0646314B5B6803F00C0362688E
:101D6400B3EB820F16D0FEF79BFF801B41F2883342
:101D74009842F0D9032045E0284A126812F4003F43
:101D8400E0D101203EE0254A126812F0007FD9D14B
:101D9400012037E0204B1B6803F00703AB420AD94C
:101DA4001D4A136823F007032B431360136803F0E1
:101DB4000703AB422DD1236813F0040F06D0174A52
:101DC400536823F4E063E1680B435360236813F022
:101DD400080F07D0114A536823F46053216943EA7A
:101DE400C1035360FFF742FF0C4B5B68C3F303135B
:101DF4000B4AD35CD8400B4B18600B4B1868FEF7AA
:101E04000BFF002070BD012070470120FAE701207C
:101E1400F8E70120F6E700BF00200240001002406E
:101E2400184700082400002004000020014B186813
:101E3400704700BF2400002008B5FFF7F7FF044BEC
:101E44005B68C3F30223034AD35CD84008BD00BFD8
:101E5400001002402847000808B5FFF7E7FF044BCD
:101E64005B68C3F3C223034AD35CD84008BD00BFF8
:101E7400001002402847000870B582B00446036889
:101E840013F0010F34D03E4BDB6913F0805F47D170
:101E94003B4BDA6942F08052DA61DB6903F080532C
:101EA4000193019B0125374B1B6813F4807F39D0C4
:101EB400334B1B6A13F4407311D0626802F440720E
:101EC4009A420CD02E4A136A23F440702E490126FC
:101ED4000E6000260E60106213F0010F36D1284AFE
:101EE400136A23F4407361680B431362002D3ED1DF
:101EF400236813F0020F06D0214A536823F44043A9
:101F0400A1680B435360236813F0100F34D01C4AAC
:101F1400536823F4800361690B43536000202CE071
:101F24000025C0E7174A136843F480731360FEF773
:101F3400B7FE0646134B1B6813F4807FB8D1FEF737
:101F4400AFFE801B6428F5D9032016E0FEF7A8FE37
:101F540006460B4B1B6A13F0020FC0D1FEF7A0FE1E
:101F6400801B41F288339842F3D9032005E0D369FA
:101F740023F08053D361BBE7002002B070BD00BFE3
:101F840000100240007000404004424208B501388D
:101F94000F2863D8DFE800F03557622F626262329F
:101FA40062626262626262082F4B5A68186810F0BB
:101FB400807054D0C2F383432C49C85C12F4803F30
:101FC40015D0294B5B68C3F34043294AD25C294BA3
:101FD400B3FBF2F300FB03F0234B5B6813F4800FB5
:101FE4003DD14000244BA3FB0030400837E0234B95
:101FF40003FB00F0F0E7FFF739FE30E0FFF736FEB1
:102004002DE0194B1B6A40F202321A40B2F5817F6F
:1020140026D003F44073B3F5007F04D0B3F5407FBA
:1020240009D000201BE0104A526A12F0020FF5D0CA
:1020340049F6404013E00C4B186810F400300ED001
:102044004FF224400BE0FFF707FF074B5B68C3F335
:10205400813301335B00B0FBF3F000E0002008BDE6
:102064004FF40040FBE700BF00100240603B000853
:10207400703B000800127A00ABAAAAAA00093D002E
:1020840038B50446FEF70CFE054623685A6812F07C
:10209400200F07D1FEF704FE401BB0F57A7FF4D978
:1020A400032004E05A6842F010025A60002038BD50
:1020B40038B504460268536823F010035360FEF7F2
:1020C400EFFD054623685B6813F0200F07D1FEF788
:1020D400E7FD401BB0F57A7FF4D9032000E000202F
:1020E40038BDC0B138B505460268536823F008030B
:1020F4005360FEF7D5FD04462B685B6813F0080FA8
:1021040007D1FEF7CDFD001BB0F57A7FF4D903208B
:1021140000E0002038BD012070470000002850D0A6
:1021240010B50446437C4BB1022363742046FFF789
:10213400D8FF38B104236374012010BD037401F087
:1021440057F9F1E72046FFF79BFF28BB2268536845
:1021540023F007035360A36823B11B4A136B23F0D6
:1021640001031363184AD36A23F46073A1680B4311
:10217400D3626368B3F1FF3F12D02268C3F3034113
:10218400916022689BB2D3602046FFF791FF88B12B
:10219400042363740120D0E7042363740120CCE793
:1021A4000120FFF7F3FE08B1431EE6E7042363743E
:1021B4000120C2E70023E37301236373A3736374F1
:1021C400BBE70120704700BF006C0040026802F1C9
:1021D4000C0353E8003F23F490730C3242E80031BF
:1021E4000029F3D1026802F1140353E8003F23F0FD
:1021F4000103143242E800310029F3D1036B012BAF
:1022040005D0202380F8423000230363704702681E
:1022140002F10C0353E8003F23F010030C3242E8B0
:1022240000310029F3D1ECE790F84130DBB2212BE7
:1022340001D0022070478368B3F5805F17D0036A2A
:102244005A1C02621A7803685A60C38C9BB2013B21
:102254009BB2C3844BB90268D36823F08003D36074
:102264000268D36843F04003D360002070470369D9
:10227400002BE4D1036A1B880268C3F3080353608C
:10228400036A02330362E0E710B504460268136987
:1022940023F44053C1680B431361836802691343F9
:1022A40042691A430168CB6823F4B05323F00C034A
:1022B4001343CB600268536923F4407381690B4371
:1022C40053610268124B9A421FD0FFF7B5FD00EB31
:1022D400800303EB830362689200B3FBF2F20D48C0
:1022E400A0FB02314909642303FB11231B01323390
:1022F400A0FB03235B0903F0F00202EB011203F0DD
:102304000F03216813448B6010BDFFF7A5FDDEE7C2
:10231400003801401F85EB5160B310B5044690F8B6
:10232400413013B3242384F841302268D36823F462
:102334000053D3602046FFF7A7FF2268136923F4F4
:10234400904313612268536923F02A03536122687E
:10235400D36843F40053D36000206064202384F8DE
:10236400413084F84230606310BD80F8403001F0A1
:102374007BFAD7E701207047704708B50168CA683F
:1023840022F04002CA60202280F84120FFF7F4FFC7
:10239400002008BD7047704708B5406A0023C38514
:1023A400C384FFF7F8FF08BD704790F84230DBB2F2
:1023B400222B69D18368B3F5805F4FD0826AB3F56D
:1023C400805F04D0002B56D10369002B53D10368DE
:1023D4005B681370836A01338362C38D9BB2013BD4
:1023E4009BB2C385002B51D100B583B00268D3687A
:1023F40023F02003D3600268D36823F48073D3608E
:102404000268536923F001035361202380F84230AA
:1024140000234363036B012B33D10023036302685E
:1024240002F10C0353E8003F23F010030C3242E89E
:1024340000310029F3D103681A6812F0100F06D096
:10244400002201921A6801925B680193019B818DBD
:10245400FFF7AAFF002003B05DF804FB0269002A1D
:10246400ACD1826A03685B68C3F308031380836A90
:1024740002338362B1E703685B6803F07F03137080
:10248400A8E7FFF787FFE5E70220704700207047C1
:1024940030B583B0044602681368D068516913F0FC
:1024A4000F0505D113F0200F02D010F0200F19D121
:1024B4002DB111F0010119D110F4907F16D1216BC7
:1024C40001297DD013F0800F03D010F0800F40F06D
:1024D400188113F0400F03D010F0400F40F0158125
:1024E40003B030BD2046FFF760FFF9E713F0010F9A
:1024F40006D010F4807F03D0626C42F00102626463
:1025040013F0040F04D019B1626C42F00202626449
:1025140013F0020F04D019B1626C42F00402626439
:1025240013F0080F07D010F0200F00D119B1626C1E
:1025340042F008026264626C002AD1D013F0200FCA
:1025440002D010F0200F29D123685B6903F0400307
:10255400626C12F0080F00D163B32046FFF736FE19
:1025640023685B6913F0400F20D0226802F1140342
:1025740053E8003F23F04003143242E800310029BD
:10258400F3D1E36B73B1634A5A63E06BFEF732FC39
:102594000028A5D0E06B436B9847A1E72046FFF7DE
:1025A40004FFD1E72046FFF7F6FE99E72046FFF740
:1025B400F2FE95E72046FFF7EEFE002363648FE703
:1025C40013F0100F3FF47EAF10F0100F3FF47AAF0A
:1025D400002301931368019353680193019B53698A
:1025E40013F0400F51D0E26B13685B689BB2002B71
:1025F4003FF476AFA18D99427FF672AFE38593697C
:10260400202B37D0226802F10C0353E8003F23F457
:1026140080730C3242E800310029F3D1226802F1C0
:10262400140353E8003F23F00103143242E800315D
:102634000029F3D1226802F1140353E8003F23F088
:102644004003143242E800310029F3D1202384F8F6
:10265400423000232363226802F10C0353E8003F55
:1026640023F010030C3242E800310029F3D1E06B6F
:10267400FEF79CFB02236363A18DE38D9BB2C91A11
:1026840089B22046FFF790FE2AE7A18DE38D9BB225
:10269400C91A89B2E38D9BB2002B3FF421AF002904
:1026A4003FF41EAF226802F10C0353E8003F23F409
:1026B40090730C3242E800300028F3D1226802F112
:1026C400140353E8003F23F00103143242E80030BE
:1026D4000028F3D1202384F84230002323632268A6
:1026E40002F10C0353E8003F23F010030C3242E8DC
:1026F40000300028F3D1022363632046FFF754FE21
:10270400EEE62046FFF790FDEAE62046FFF735FEA9
:10271400E6E600BF9D230008431E9BB2002849D073
:1027240000BF00BF00BF00BF00BF00BF00BF00BFAD
:1027340000BF00BF00BF00BF00BF00BF00BF00BF9D
:1027440000BF00BF00BF00BF00BF00BF00BF00BF8D
:1027540000BF00BF00BF00BF00BF00BF00BF00BF7D
:1027640000BF00BF00BF00BF00BF00BF00BF00BF6D
:1027740000BF00BF00BF00BF00BF00BF00BF00BF5D
:1027840000BF00BF00BF00BF00BF00BF00BF00BF4D
:1027940000BF00BF00BF00BF00BF00BF00BF00BF3D
:1027A40000BF00BF00BF00BF00BF00BF00BF00BF2D
:1027B4001846B1E77047000010B50E4C0122802185
:1027C4002046FEF7F0FC012240212046FEF7EBFCF8
:1027D4000520FFF7A1FF002280212046FEF7E3FC3D
:1027E4000520FFF799FF002240212046FEF7DBFC7D
:1027F40010BD00BF000C014010B50B4C002280211D
:102804002046FEF7D0FC012240212046FEF7CBFCF7
:102814000520FFF781FF012280212046FEF7C3FC3B
:102824000520FFF779FF10BD000C014010B584B0FE
:102834000446C023009301230193022303936946B2
:102844001148FEF78DFB012C18D0ACB90022802171
:102854000D48FEF7A8FC0C4C012240212046FEF74F
:10286400A2FC0520FFF758FF002240212046FEF776
:102874009AFC0520FFF750FF04B010BD012280210F
:102884000148FEF790FCE6E7000C014030B585B046
:10289400002301930223039380250095164C694677
:1028A4002046FEF75DFB012240212046FEF77BFC1B
:1028B4000520FFF731FF29462046FEF76DFC01286D
:1028C40015D00E4B00221A700B4C002240212046DA
:1028D400FEF769FC0520FFF71FFF012301936946FA
:1028E4002046FEF73DFB054B187805B030BD034B81
:1028F40001221A70E8E700BF000C014077040020B1
:1029040070B50446002519E0012280211248FEF723
:102914004AFC6400E4B2104E012240213046FEF726
:1029240042FC0520FFF7F8FE002240213046FEF766
:102934003AFC0520FFF7F0FE0135EDB2072D08D86B
:1029440014F0800FE0D1002280210348FEF72BFC15
:10295400DFE7FFF79BFF70BD000C014008B5FFF7F0
:102964002BFF4620FFF7CCFF0120FFF7C9FFFFF73D
:1029740043FF08BD10B50446FFF71EFF4620FFF7CE
:10298400BFFF2046FFF7BCFFFFF736FF10BD000076
:1029940070B584B000250195802600960223039328
:1029A4001A4C69462046FEF7DBFA012231462046DE
:1029B400FEF7F9FB2C460BE02043C4B20022402171
:1029C4001248FEF7F0FB0520FFF7A6FE0135EDB235
:1029D400072D12D86400E4B20C4E01224021304687
:1029E400FEF7E1FB0520FFF797FE80213046FEF756
:1029F400D3FB0128E0D00020DEE7012301936946E0
:102A04000248FEF7ADFA204604B070BD000C014048
:102A140010B5FFF7D1FE4720FFF772FF002404E052
:102A24000120FFF703FF0134E4B2022C09D8FFF7B9
:102A3400AFFF054B1855032CF2D00020FFF7F6FE2C
:102A4400F1E7FFF7D9FE10BD7404002008B501209A
:102A5400FFF790FF1020FFF78DFFB42000F038F847
:102A6400FFF7D6FF094B1A78587800EB022080B2A2
:102A7400FEF77AF8FDF738FD4FF03332044BFDF7DB
:102A8400B5FEFDF79BFF80B208BD00BF74040020B3
:102A94003333F33F08B50020FEF778F9084B1B6881
:102AA400084AA2FB0323C3F34723074A1370C3EB6B
:102AB400431203EB8203DA00044B1A8008BD00BF03
:102AC40024000020D34D62107A04002078040020F2
:102AD4000C4B1B7800FB03F00B4B586000229A60F0
:102AE4001A6842F001021A60074B1B6803F00113D5
:102AF400012BF9D0044B1A6822F001021A6000225B
:102B04009A6070477A04002010E000E00C4B1B88A8
:102B140000FB03F00B4B586000229A601A6842F0E5
:102B240001021A60074B1B6803F00113012BF9D053
:102B3400044B1A6822F001021A6000229A6070475E
:102B44007804002010E000E000B587B00C4B9A69CF
:102B540042F480729A619B6903F480730193019B30
:102B64004FF4006302930123039303220592049319
:102B740002A90448FEF7F4F907B05DF804FB00BFAE
:102B8400001002400020014000B587B00B4B9A6949
:102B940042F004029A619B6903F004030193019BD0
:102BA4004FF400630293002303930123049302A9C7
:102BB4000348FEF7D5F907B05DF804FB00100240A6
:102BC4000020014010B5FFF7BFFF0A4C00224FF46C
:102BD40000612046FEF7E7FA1420FFF797FF012271
:102BE4004FF400612046FEF7DEFA1E20FFF770FF67
:102BF40010BD00BF0020014010B5FFF7C5FF002441
:102C04004FF400611248FEF7C7FA012807D1632C7C
:102C140005D80134E4B20120FFF75AFFF0E7632C32
:102C240012D800244FF400610948FEF7B5FA38B908
:102C3400632C05D80134E4B20120FFF749FFF1E722
:102C4400632C03D8002010BD0120FCE70120FAE723
:102C54000020014010B500244FF400611448FEF731
:102C64009BFA012809D1632C05D80134E4B2012070
:102C7400FFF72EFFF0E7002400E000244FF400618A
:102C84000B48FEF789FA38B9632C05D80134E4B24D
:102C94000120FFF71DFFF1E72820FFF719FF4FF48C
:102CA40000610348FEF778FA012800D0002010BD27
:102CB4000020014038B50020054607E04000C4B2BA
:102CC400FFF7C8FF2043C0B20135EDB2072DF5D997
:102CD40038BDF0B583B005460E46FFF773FFFFF726
:102CE4008BFF60B907460446042C0AD8FFF7E2FFBD
:102CF40002AB234403F8080C0134E4B2F4E70127DF
:102D04000EE09DF800109DF801300B449DF8022060
:102D140013449DF8030003449DF80400834202D049
:102D2400384603B0F0BD31702A70F9E708B5FFF7F3
:102D340049FFFFF761FF08BD82B00A4B9A6942F070
:102D440004029A619A6902F004020092009A9A6954
:102D540042F008029A619B6903F008030193019B06
:102D640002B070470010024008B50B480B4B0360DB
:102D74000B4B436000238360C3604FF480420261C5
:102D840043618361C3610362FEF7BCFB00B908BD04
:102D940000F07CF8FBE700BF7C04002000540040F6
:102DA400A086010008B50B480B4B03600B4B436036
:102DB40000238360C3604FF48042026143618361F6
:102DC400C3610362FEF79EFB00B908BD00F05EF824
:102DD400FBE700BFD004002000580040A08601009B
:102DE40010B588B0002304930593069307930368F2
:102DF400224A934204D0224A93421FD008B010BD05
:102E0400204CA36943F00803A361A36903F00803FA
:102E14000093009BC0230493122305930323079379
:102E240004A91948FEF79CF8E36943F40013E3612D
:102E3400E36903F400130193019BDFE7114CA369D9
:102E440043F00803A361A36903F008030293029B00
:102E54004FF440630493122305930323079304A9B7
:102E64000948FEF77DF8E36943F48003E361E3690D
:102E740003F480030393039BC0E700BF00540040A6
:102E84000058004000100240000C014072B6FEE7FA
:102E940000B597B000230F931193079308930993F8
:102EA4000A930B930193029303930493059306935C
:102EB40009220C924FF480320D920E930123109349
:102EC40012930223139314924FF4E01315930CA856
:102ED400FEF7C4FCC8B90F2307930221089100230D
:102EE40009934FF480620A920B9307A8FEF7E8FE59
:102EF40068B9012301934FF40073029301A8FEF70C
:102F0400BBFF30B917B05DF804FBFFF7BFFFFFF755
:102F1400BDFFFFF7BBFF000030B585B001238DF87E
:102F24000F308DF80E30FDF79DFEFFF7B1FFFFF770
:102F340003FFFFF719FFFFF735FF00F043FA00F036
:102F44005FFC00F077FC00F029F900F02EF9FFF7A0
:102F5400A1FD0520FDF7BEFEFFF7E8FEFFF7FEFC2E
:102F640000F0F4FB0821202000F0D6FB00F0F6FB73
:102F7400050C84B24FF4FA70FFF7C8FDB5F5C87FAD
:102F840001D1002CEED0584C002322461946184695
:102F940000F0F1F9012322460021102000F0EBF9A2
:102FA400524C002322461946202000F0E4F9002365
:102FB4004F4A1946402000F0DEF94E4D00232A46C0
:102FC4000221184600F0D7F900232A4602211020D6
:102FD40000F0D1F9002322460221202000F0CBF991
:102FE4001023454A0221502000F0AAF9434D002342
:102FF4002A460421184600F0BEF901232A4604217A
:10300400102000F0B8F902232A460421202000F001
:10301400B2F903232A460421302000F0ACF900233E
:1030240022460421402000F0A6F91023344A04214A
:10303400702000F085F9334D00232A4606211846F6
:1030440000F099F901232A460621102000F093F993
:1030540002232A460621202000F08DF903232A4664
:103064000621302000F087F9002322460621402063
:1030740000F081F91023244A0621602000F060F951
:103084000DF10E010DF10F00FFF723FE08212020A2
:1030940000F042FB00F062FB050C102400940223B4
:1030A4009DF80F200021302000F000F90094022345
:1030B4009DF80E201946302000F0F8F8FFF7C6FC02
:1030C4000246009403230421502000F0EFF80094FA
:1030D40003232A460621502000F0E8F84FF47A70C2
:1030E400FFF7F6FCCCE700BF9846000858460008F6
:1030F400803C0008D8440008743B00085845000888
:10310400783B0008803B00087C3B000810B584B085
:1031140000240EE04FF48073029301230193074AC5
:1031240022440092002278210548FEF7C9FA0134AE
:10313400E4B21A2CEED904B010BD00BF0800002080
:10314400D004002000B587B08DF817004FF48073C9
:103154000293012301930DF11702009200227821BA
:103164000248FEF7ADFA07B05DF804FBD004002076
:1031740000B587B08DF817004FF4807302930123D4
:1031840001930DF117020092402278210248FEF7C4
:1031940097FA07B05DF804FBD004002008B5C820F6
:1031A400FDF784FDFFF7B2FF08BD38B5002501E047
:1031B4000135EDB2072D14D8A5F15000C0B2FFF7C8
:1031C400C1FF0020FFF7BEFF1020FFF7BBFF002464
:1031D40014F0800FECD10020FFF7CAFF0134E4B2F1
:1031E400F6E738BD10B50446A1F15000C0B2FFF7B0
:1031F400A9FF200940F01000FFF7A4FF04F00F001E
:10320400FFF7A0FF10BD024601204B1EDBB219B12F
:1032140002FB00F01946F8E770470000F8B50746CE
:103224000E46203AD5B210F0800F13D1102B15D0D2
:1032340031463846FFF7D6FF0024052C30D805EB7D
:103244004503184A02EB4303185DFFF791FF01346D
:10325400E4B2F2E70236F6B20027E7E73146384631
:10326400FFF7C0FF002407E004EB05130E4AD05C0F
:10327400FFF77EFF0134E4B2072CF5D9711CC9B203
:103284003846FFF7AFFF002408E004EB05130833CA
:10329400054AD05CFFF76CFF0134E4B2072CF4D983
:1032A400F8BD00BFC03C0008E83E00082DE9F84F17
:1032B40083468A4691461E469DF828704FF00008C2
:1032C400454619E0780800FB05F0C0B258443B4677
:1032D40020225146C0B2FFF7A1FF0BE0780800FBA3
:1032E40005F0C0B2303458443B46E2B25146C0B255
:1032F400FFF794FF0135EDB2B5421CD2711BC9B280
:103304000139C9B20A20FFF77EFFB9FBF0F00B4C7C
:10331400A4FB0034E40804EB8404A0EB4404E4B20A
:10332400B8F1000FDAD1731E9D42D7DA002CC9D050
:103334004FF00108D2E7BDE8F88F00BFCDCCCCCC6C
:103344002DE9F04104460E4617469846002501E053
:103354000135EDB27A5D62B1434631462046FFF74E
:103364005DFF0834E4B2782CF2D90236F6B20024B8
:10337400EEE7BDE8F0812DE9F04180460F461546A1
:103384001E46FFF72FFF00240F2C07D805EB8613EA
:10339400185DFFF7EDFE0134E4B2F5E7791CC9B21C
:1033A4004046FFF71FFF00240F2C08D8B10120313D
:1033B4002944085DFFF7DCFE0134E4B2F4E7BDE81C
:1033C400F081000008B50848084B03604FF0FF3354
:1033D40043604FF480738360FEF7A0FE00B908BD1C
:1033E400FFF754FDFBE700BF240500200028004040
:1033F40002680C4B9A4200D0704700B583B0FEF7C8
:1034040011FA094BDA6942F00062DA61DB6903F010
:1034140000630193019B054B01221A6003B05DF820
:1034240004FB00BF00280040001002403C0442425C
:1034340030B587B0124CA36943F00403A361A369B8
:1034440003F004030093009B2023029301230393BE
:10345400032305930B4D02A92846FDF781FDA369BB
:1034640043F00403A361A36903F004030193019BE4
:103474004023029302A92846FDF772FD07B030BD30
:10348400001002400008014000B585B040230093BD
:10349400012301930323039369460348FDF760FD69
:1034A40005B05DF804FB00BF0008014000B585B01D
:1034B40040230093032303930023019369460348A5
:1034C400FDF74EFD05B05DF804FB00BF00080140A8
:1034D40010B5FFF7D9FF0E4C012240212046FDF71D
:1034E40062FE012220212046FDF75DFE1420FFF735
:1034F400EFFA002240212046FDF755FE1420FFF785
:10350400E7FA002220212046FDF74DFE10BD00BF42
:103514000008014010B5FFF7B7FF0E4C0022202130
:103524002046FDF740FE002240212046FDF73BFEE9
:103534001420FFF7CDFA012220212046FDF733FEA7
:10354400012240212046FDF72EFE1420FFF7C0FA89
:1035540010BD00BF0008014038B5FFF7A7FF154CA8
:10356400012240212046FDF71EFE0A20FFF7B0FA93
:10357400012220212046FDF716FE0A20FFF7A8FAB3
:10358400002440210B48FDF707FE054638B10134FD
:10359400E4B2FA2CF5D9FFF7BDFF012507E00022BC
:1035A400202100F1804000F58430FDF7FCFD284621
:1035B40038BD00BF0008014010B50F4C0022202187
:1035C4002046FDF7F0FDFFF75FFF00224021204673
:1035D400FDF7E9FD1420FFF77BFA012220212046A4
:1035E400FDF7E1FD1420FFF773FA002220212046A5
:1035F400FDF7D9FD10BD00BF0008014010B50F4C08
:10360400002220212046FDF7CEFDFFF73DFF0122D9
:1036140040212046FDF7C7FD1420FFF759FA012287
:1036240020212046FDF7BFFD1420FFF751FA0022A8
:1036340020212046FDF7B7FD10BD00BF0008014062
:1036440070B50446FFF720FF002220211848FDF73B
:10365400AAFD00251CE0012240211548FDF7A3FD29
:103664006400E4B21420FFF733FA114E0122202142
:103674003046FDF798FD1420FFF72AFA0022202196
:103684003046FDF790FD1420FFF722FA0135EDB224
:10369400072D08D814F0800FDDD100224021044802
:1036A400FDF781FDDCE71420FFF712FA70BD00BFBF
:1036B40000080140F8B50746FFF7F8FE0024254648
:1036C40004E01420FFF704FA0135EDB2072D18D8F1
:1036D400104E002220213046FDF765FD1420FFF72F
:1036E400F7F9012220213046FDF75DFD6400A4B204
:1036F40040213046FDF750FD0028E2D00134A4B249
:10370400DFE71FB9FFF77AFF2046F8BDFFF754FF44
:10371400FAE700BF0008014038B505460C46FFF73C
:10372400D7FEB020FFF78CFFFFF716FF2846FFF700
:1037340087FFFFF711FF2046FFF782FFFFF70CFF1B
:10374400FFF7E8FE6420FFF7E1F938BD08B5FFF79D
:103754006FFE03212020FFF7DFFF08BD10B5FFF740
:10376400B7FEB120FFF76CFFFFF7F6FE0120FFF76D
:10377400A1FF04020120FFF79DFF04440120FFF78D
:1037840099FF24020120FFF795FF0444240200203E
:10379400FFF790FF0444FFF7BDFE204610BD000074
:1037A40082B00E4B9A6942F001029A619A6902F062
:1037B40001020092009ADA6942F08052DA61DB6910
:1037C40003F080530193019B054A536823F0E0639F
:1037D40043F00073536002B0704700BF0010024012
:1037E40000000140FEE7FEE7FEE7FEE7FEE7704764
:1037F4007047704708B5FDF747FA08BD70470000E9
:1038040008B50A480A4B03604FF4E13343600023D0
:103814008360C36003610C2242618361C361FEF76C
:103824007BFD00B908BDFFF731FBFBE70406002070
:103834000038014008B50A480A4B03604FF4E133ED
:10384400436000238360C36003610C22426183618F
:10385400C361FEF761FD00B908BDFFF717FBFBE785
:103864004C0600200044004010B588B000230493A7
:1038740005930693079303682C4A934204D02C4A79
:1038840093422BD008B010BD2A4B9A6942F480426F
:103894009A619A6902F480420092009A9A6942F00D
:1038A40004029A619B6903F004030193019B4FF4A2
:1038B4000073049302230593032307931E4C04A966
:1038C4002046FDF74DFB4FF48063049300230593DA
:1038D400069304A92046FDF743FBD3E7154BDA69A9
:1038E40042F40032DA61DA6902F400320292029A96
:1038F4009A6942F004029A619B6903F004030393FA
:10390400039B0423049302230593032307930A4C84
:1039140004A92046FDF724FB082304930023059300
:10392400069304A92046FDF71BFBABE700380140D2
:1039340000440040001002400008014008B51B4B41
:103944001B681B6813F0200F10D0194B5B68DBB2A7
:1039540018490A88B1F90010002907DB12F4804FD6
:103964000FD00A2B06D0134B00221A800F48FEF703
:103974008FFD08BD6FEA42426FEA52420D4B1A8036
:10398400F4E70D2B0CD0C2F30D010B484354013264
:1039940092B2084B1A80C72AE8D900221A80E5E7B8
:1039A40042F48042034B1A80E0E700BF0406002083
:1039B400003801400006002038050020FFF71EFFF4
:1039C4000B480C490C4A002302E0D458C450043379
:1039D400C4188C42F9D3094A094C002301E013604E
:1039E4000432A242FBD300F00FF8FFF795FA7047B8
:1039F4000000002054040020404700085404002024
:103A0400B8060020FEE7000070B50D4E0D4D761B84
:103A1400B61006D0002455F8043B01349847A6425A
:103A2400F9D1094E094D00F083F8761BB61006D083
:103A3400002455F8043B01349847A642F9D170BDDF
:103A440034470008344700083C470008344700085E
:103A5400024B13B1024800F005B8704700000000A3
:103A6400753A0008002301461A46184600F01AB8B1
:103A740038B5084B084D5B1B9C1007D0043B1D4414
:103A8400013C55F804399847002CF9D1BDE8384079
:103A940000F054B8404700083C470008704700BF96
:103AA400704700BF2DE9F047DFF880A00646DAF83A
:103AB400000098460F469146FFF7F0FF1A4B1B682B
:103AC400D3F8484124B365681F2D26DC5EB96B1C0E
:103AD4000235DAF80000636044F82570FFF7E0FF70
:103AE4000020BDE8F087012304EB8501C1F888902C
:103AF400D4F88821AB401A43022EC4F88821C1F8B7
:103B04000881E4D1D4F88C211343C4F88C31DEE766
:103B140003F5A674C3F84841D5E7DAF80000FFF7C7
:103B2400BFFF4FF0FF30DCE73047000850040020AF
:103B3400F8B500BFF8BC08BC9E467047F8B500BF96
:083B4400F8BC08BC9E46704766
:103B4C0002030405060708090A0B0C0D0E0F1010D2
:103B5C000102000002030405060708090A0B0C0DFC
:103B6C000E0F101001020000250000006C78000000
:103B7C0070706D00100C4424140405060404142405
:103B8C0044140C00000000000000000000000000C5
:103B9C0000000000004040414141417F4141414112
:103BAC004040000000000000000000000000000089
:103BBC000000000020104C4754545454545454D416
:103BCC0004040000000000000000000000000000E1
:103BDC000000000000000000000000000000000FCA
:103BEC003040F00000000000000000000000000069
:103BFC00000000000000FE121292929292FF91912E
:103C0C009191100000000000000000000000000076
:103C1C000000000080601F80805F4020100E10109C
:103C2C00205F800000000000000000000000000089
:103C3C0000000000202020BEAAAAAAAAAAAAAABEF6
:103C4C002020200000000000000000000000000008
:103C5C0000000000008080AFAAAAAAFFAAAAAAAFFF
:103C6C008080000000000000000000000000000048
:103C7C0000000000060909E6F80C04020202020228
:103C8C00041E000000000000000000000000000006
:103C9C0000000000000000071F3020404040404062
:103CAC0020100000000000000000000000000000D8
:103CBC00000000000000000000000000002F0000C9
:103CCC0000000700070000147F147F1400242A7FD3
:103CDC002A12006264081323003649552250000052
:103CEC000503000000001C224100000041221C00C2
:103CFC000014083E08140008083E0808000000A044
:103D0C00600000080808080800006060000000203F
:103D1C0010080402003E5149453E0000427F40001D
:103D2C00004261514946002141454B3100181412A3
:103D3C007F10002745454539003C4A494930000170
:103D4C007109050300364949493600064949291EBF
:103D5C000000363600000000563600000008142221
:103D6C004100001414141414000041221408000221
:103D7C000151090600324959513E007C1211127C46
:103D8C00007F49494936003E41414122007F414173
:103D9C00221C007F49494941007F09090901003E65
:103DAC004149497A007F0808087F0000417F4100A3
:103DBC00002040413F01007F08142241007F404019
:103DCC004040007F020C027F007F0408107F003E01
:103DDC004141413E007F09090906003E4151215EE7
:103DEC00007F091929460046494949310001017FE4
:103DFC000101003F4040403F001F2040201F003F7A
:103E0C004038403F0063140814630007087008072B
:103E1C0000615149454300007F41410000552A553E
:103E2C002A55000041417F000004020102040040B9
:103E3C0040404040000001020400002054545478DB
:103E4C00007F4844443800384444442000384444FB
:103E5C00487F00385454541800087E090102001899
:103E6C00A4A4A47C007F080404780000447D4000D6
:103E7C00004080847D00007F102844000000417FBA
:103E8C004000007C04180478007C08040478003896
:103E9C004444443800FC242424180018242418FC1E
:103EAC00007C0804040800485454542000043F4487
:103EBC004020003C4040207C001C2040201C003C4A
:103ECC004030403C004428102844001CA0A0A07C9A
:103EDC00004464544C4414141414141400000000D2
:103EEC00000000000000000000000000000000F8CE
:103EFC0000000000000000333000000000100C0631
:103F0C00100C0600000000000000000040C07840CB
:103F1C00C0784000043F04043F040400007088FC97
:103F2C0008300000001820FF211E0000F008F000EF
:103F3C00E018000000211C031E211E0000F0088860
:103F4C00700000001E2123241927211010160E00CA
:103F5C00000000000000000000000000000000E075
:103F6C00180402000000000718204000000204188A
:103F7C00E00000000040201807000000404080F0E6
:103F8C00804040000202010F01020200000000F01C
:103F9C00000000000101011F0101010000000000F0
:103FAC000000000080B07000000000000000000065
:103FBC0000000000000101010101010100000000EE
:103FCC000000000000303000000000000000000085
:103FDC0080601804006018060100000000E0100862
:103FEC000810E000000F102020100F00001010F837
:103FFC00000000000020203F202000000070080876
:10400C0008887000003028242221300000300888F5
:10401C00884830000018202020110E000000C0201D
:10402C0010F8000000070424243F240000F808883E
:10403C00880808000019212020110E0000E01088CB
:10404C0088180000000F112020110E0000380808FD
:10405C00C83808000000003F00000000007088080D
:10406C0008887000001C222121221C0000E010088E
:10407C000810E0000000312222110F00000000C0E7
:10408C00C000000000000030300000000000008084
:10409C000000000000008060000000000000804074
:1040AC00201008000001020408102000404040408D
:1040BC0040404000040404040404040000081020E0
:1040CC004080000000201008040201000070480825
:1040DC000808F0000000003036010000C030C8288D
:1040EC00E810E0000718272423140B000000C03848
:1040FC00E0000000203C23020227382008F88888C2
:10410C0088700000203F202020110E00C0300808CD
:10411C0008083800071820202010080008F80808A4
:10412C000810E000203F202020100F0008F888889D
:10413C00E8081000203F20202320180008F8888869
:10414C00E8081000203F200003000000C0300808E1
:10415C000838000007182020221E020008F808006A
:10416C000008F808203F210101213F20000808F831
:10417C00080800000020203F202000000000080854
:10418C00F8080800C08080807F00000008F888C014
:10419C0028180800203F20012638200008F80800C5
:1041AC0000000000203F20202020300008F8F800FC
:1041BC00F8F80800203F003F003F200008F830C00E
:1041CC000008F808203F200007183F00E0100808FE
:1041DC000810E0000F10202020100F0008F808082D
:1041EC000808F000203F210101010000E010080840
:1041FC000810E0000F18242438504F0008F8888865
:10420C0088887000203F2000030C30200070880844
:10421C00080838000038202121221C00180808F852
:10422C00080818000000203F2000000008F80800D3
:10423C000008F808001F202020201F0008788800A4
:10424C0000C83808000007380E010000F80800F814
:10425C000008F800033C0700073C030008186880BE
:10426C008068180820302C03032C30200838C80034
:10427C00C83808000000203F200000001008080883
:10428C00C83808002038262120201800000000FE25
:10429C00020202000000007F40404000000C30C0D1
:1042AC0000000000000000010638C00000020202FD
:1042BC00FE000000004040407F00000000000402AF
:1042CC0002020400000000000000000000000000DA
:1042DC0000000000808080808080808000020204CA
:1042EC0000000000000000000000000000008080C2
:1042FC00808000000019242222223F2008F8008030
:10430C0080000000003F112020110E0000000080F2
:10431C0080800000000E1120202011000000008081
:10432C008088F800000E112020103F2000008080B3
:10433C0080800000001F222222221300008080F0C7
:10434C00888888180020203F2020000000008080F2
:10435C0080808000006B94949493600008F8008037
:10436C0080800000203F210000203F200080989892
:10437C00000000000020203F2020000000000080F2
:10438C009898000000C08080807F000008F8000032
:10439C0080808000203F24022D302000000808F887
:1043AC00000000000020203F202000008080808042
:1043BC0080808000203F20003F20003F80800080D4
:1043CC0080800000203F210000203F2000008080E2
:1043DC0080800000001F202020201F008080008093
:1043EC008000000080FFA12020110E000000008042
:1043FC0080808000000E112020A0FF808080800033
:10440C008080800020203F2120000100000080805F
:10441C00808080000033242424241900008080E054
:10442C00808000000000001F202000008080000021
:10443C0000808000001F202020103F208080800002
:10444C000080808000010E30080601008080008012
:10445C00008080800F300C030C300F000080800037
:10446C00808080000020312E0E3120008080800062
:10447C000080808080818E70180601000080808012
:10448C00808080000021302C2221300000000000B0
:10449C00807C020200000000003F40400000000051
:1044AC00FF00000000000000FF0000000002027C82
:1044BC00800000000040403F0000000000060101A9
:1044CC000202040400000000000000001060028CD6
:1044DC0000FE929292929292FE0000000000000068
:1044EC0000000000000000000000000004047E0139
:1044FC004448507F40407F5048444000000000003A
:10450C000000000000000000000000000000FC247F
:10451C002424FC252624FC24242404000000000070
:10452C0000000000000000000000000040308F8000
:10453C00844C55252525554C8080800000000000BA
:10454C000000000000000000000000004040424459
:10455C0058C0407F40C0504846404000000000001A
:10456C0000000000000000000000000080804020DF
:10457C0018070000003F4040404078000000000059
:10458C0000000000000000000000000000FE42429D
:10459C0042FE0042A29E82A2C2BE000000000000A9
:1045AC00000000000000000000000000806F080800
:1045BC0028CF00002FC8080828CF000000000000FA
:1045CC0000000000000000000000000002E22222B7
:1045DC003E00809E9292F292929E8000000000001B
:1045EC0000000000000000000000000000438242B8
:1045FC003E40474444447F444454E70000000000DC
:10460C000000000000000000000000000000FC247E
:10461C002424FC252624FC2424240400000000006F
:10462C0000000000000000000000000040308F80FF
:10463C00844C55252525554C8080800000000000B9
:10464C00000000000000000000000000000000005E
:10465C00000000000000000000000000000000004E
:10466C0000000000000000000000000000003636D2
:10467C00000000000000000000000000000000002E
:10468C000000000000000000000000001060028C20
:10469C000000FE9292929292FE0000000000000038
:1046AC0000000000000000000000000004047E0177
:1046BC00407E42427E427E42427E4000000000002C
:1046CC000000000000000000000000000000FC24BE
:1046DC002424FC252624FC242424040000000000AF
:1046EC0000000000000000000000000040308F803F
:1046FC00844C55252525554C8080800000000000F9
:10470C00000000000000000000000000000000009D
:10471C000000000001020304060708090000000065
:08472C00010203042800002033
:08473400553A000809020008D3
:04473C00E50100088B
:104740000100000010000000AE001040B081FFA189
:10475000A6A83FC8D300D580D805D9F1DA12D83041
:104760008D14AF000024F4000000000014030020AA
:104770007C030020E4030020000000000000000093
:104780000000000000000000000000000000000029
:104790000000000000000000000000000000000019
:1047A0000000000000000000000000000000000009
:1047B00000000000000000000000000000000000F9
:1047C00000000000000000000000000000000000E9
:1047D00000000000000000000000000000000000D9
:1047E00000000000000000000000000000000000C9
:1047F00000000000000000000000000000000000B9
:1048000000000000000000000000000000000000A8
:1048100001000000000000000E33CDAB34126DE645
:10482000ECDE05000B0000000000000000000000AE
:104830000000000000000000000000000000000078
:104840000000000000000000000000000000000068
:104850000000000000000000000000000000000058
:104860000000000000000000000000000000000048
:044B90009406002067
:04000005080039C1F5
:00000001FF
