:020000040800F2
:1000000000000120593F0008393B00083B3B000835
:100010003D3B00083F3B0008413B0008000000005A
:10002000000000000000000000000000433B00084A
:10003000453B000800000000473B0008493B000822
:10004000A13F0008A13F0008A13F0008A13F000810
:10005000A13F0008A13F0008A13F0008A13F000800
:10006000A13F0008A13F0008A13F0008A13F0008F0
:10007000A13F0008A13F0008A13F0008A13F0008E0
:10008000A13F0008A13F0008A13F0008A13F0008D0
:10009000A13F0008A13F0008A13F0008A13F0008C0
:1000A000A13F0008A13F0008A13F0008A13F0008B0
:1000B000A13F0008A13F0008A13F0008A13F0008A0
:1000C000A13F0008A13F0008A13F0008A13F000890
:1000D000A13F0008A13F0008A13F0008A13F000880
:1000E000A13F0008A13F0008A13F0008A13F000870
:1000F000A13F0008A13F0008A13F0008A13F000860
:10010000A13F0008A13F0008A13F0008A13F00084F
:10011000A13F0008A13F0008A13F0008A13F00083F
:10012000A13F0008A13F0008A13F0008A13F00082F
:1001300000000000000000000000000000000000BF
:1001400000000000000000000000000000000000AF
:10015000000000000000000000000000000000009F
:10016000000000000000000000000000000000008F
:10017000000000000000000000000000000000007F
:10018000000000000000000000000000000000006F
:10019000000000000000000000000000000000005F
:1001A000000000000000000000000000000000004F
:1001B000000000000000000000000000000000003F
:1001C000000000000000000000000000000000002F
:1001D000000000000000000000000000000000001F
:0401E0005FF8E0F1F3
:1001E80010B5054C237833B9044B13B10448AFF369
:1001F80000800123237010BDD809002000000000F2
:100208008890000808B5034B1BB103490348AFF3B6
:10021800008008BD00000000DC090020889000086C
:1002280081F0004102E000BF83F0004330B54FEA9F
:1002380041044FEA430594EA050F08BF90EA020F0C
:100248001FBF54EA000C55EA020C7FEA645C7FEA9F
:10025800655C00F0E2804FEA5454D4EB5555B8BFC2
:100268006D420CDD2C4480EA020281EA030382EA33
:10027800000083EA010180EA020281EA0303362DC5
:1002880088BF30BD11F0004F4FEA01314FF4801C98
:100298004CEA113102D0404261EB410113F0004FAA
:1002A8004FEA03334CEA133302D0524263EB430361
:1002B80094EA050F00F0A780A4F10104D5F1200EFF
:1002C8000DDB02FA0EFC22FA05F2801841F100015A
:1002D80003FA0EF2801843FA05F359410EE0A5F12E
:1002E80020050EF1200E012A03FA0EFC28BF4CF05F
:1002F800020C43FA05F3C01851EBE37101F0004515
:1003080007D54FF0000EDCF1000C7EEB00006EEB21
:100318000101B1F5801F1BD3B1F5001F0CD34908AB
:100328005FEA30004FEA3C0C04F101044FEA445202
:1003380012F5800F80F09A80BCF1004F08BF5FEA89
:10034800500C50F1000041EB045141EA050130BD69
:100358005FEA4C0C404141EB0101013C28BFB1F57B
:10036800801FE9D291F0000F04BF01460020B1FAC6
:1003780081F308BF2033A3F10B03B3F120020CDA99
:100388000C3208DD02F1140CC2F10C0201FA0CF077
:1003980021FA02F10CE002F11402D8BFC2F1200CDC
:1003A80001FA02F120FA0CFCDCBF41EA0C01904092
:1003B800E41AA2BF01EB0451294330BD6FEA0404DB
:1003C8001F3C1CDA0C340EDC04F11404C4F12002C6
:1003D80020FA04F001FA02F340EA030021FA04F3D8
:1003E80045EA030130BDC4F10C04C4F1200220FA2F
:1003F80002F001FA04F340EA0300294630BD21FA6D
:1004080004F0294630BD94F0000F83F4801306BF32
:1004180081F480110134013D4EE77FEA645C18BF26
:100428007FEA655C29D094EA050F08BF90EA020FBD
:1004380005D054EA000C04BF1946104630BD91EAB5
:10044800030F1EBF0021002030BD5FEA545C05D1B8
:100458004000494128BF41F0004130BD14F58004F7
:100468003CBF01F5801130BD01F0004545F0FE416B
:1004780041F470014FF0000030BD7FEA645C1ABFA0
:10048800194610467FEA655C1CBF0B46024650EAD7
:10049800013406BF52EA033591EA030F41F4002103
:1004A80030BD00BF90F0000F04BF0021704730B589
:1004B8004FF4806404F132044FF000054FF000015E
:1004C80050E700BF90F0000F04BF0021704730B51F
:1004D8004FF4806404F1320410F0004548BF4042F4
:1004E8004FF000013EE700BF42004FEAE2014FEA49
:1004F80031014FEA02701FBF12F07F4393F07F4F24
:1005080081F06051704732F07F4208BF704793F026
:100518007F4F04BF41F40021704730B54FF4607439
:1005280001F0004521F000411CE700BF50EA01023C
:1005380008BF704730B54FF000050AE050EA0102E5
:1005480008BF704730B511F0004502D5404261EB55
:1005580041014FF4806404F132045FEA915C3FF496
:10056800D8AE4FF003025FEADC0C18BF03325FEA33
:10057800DC0C18BF033202EBDC02C2F1200300FAE4
:1005880003FC20FA02F001FA03FE40EA0E0021FA09
:1005980002F11444BDE600BF70B54FF0FF0C4CF4F7
:1005A800E06C1CEA11541DBF1CEA135594EA0C0FA9
:1005B80095EA0C0F00F0DEF82C4481EA030621EAE4
:1005C8004C5123EA4C5350EA013518BF52EA03351F
:1005D80041F4801143F4801338D0A0FB02CE4FF0D1
:1005E8000005E1FB02E506F00042E0FB03E54FF001
:1005F8000006E1FB03569CF0000F18BF4EF0010EF9
:10060800A4F1FF04B6F5007F64F5407404D25FEAF4
:100618004E0E6D4146EB060642EAC62141EA5551A7
:100628004FEAC52040EA5E504FEACE2EB4F1FD0CE9
:1006380088BFBCF5E06F1ED8BEF1004F08BF5FEA67
:10064800500E50F1000041EB045170BD06F0004619
:1006580046EA010140EA020081EA0301B4EB5C04C6
:10066800C2BFD4EB0C0541EA045170BD41F48011BE
:100678004FF0000E013C00F3AB8014F1360FDEBFE3
:10068800002001F0004170BDC4F10004203C35DABF
:100698000C341BDC04F11404C4F1200500FA05F342
:1006A80020FA04F001FA05F240EA020001F00042E3
:1006B80021F0004110EBD37021FA04F642EB060159
:1006C8005EEA430E08BF20EAD37070BDC4F10C0483
:1006D800C4F1200500FA04F320FA05F001FA04F247
:1006E80040EA020001F0004110EBD37041F1000133
:1006F8005EEA430E08BF20EAD37070BDC4F120053E
:1007080000FA05F24EEA020E20FA04F301FA05F2A5
:1007180043EA020321FA04F001F0004121FA04F24D
:1007280020EA020000EBD3705EEA430E08BF20EA1D
:10073800D37070BD94F0000F0FD101F00046400057
:1007480041EB010111F4801F08BF013CF7D041EAD9
:10075800060195F0000F18BF704703F000465200DD
:1007680043EB030313F4801F08BF013DF7D043EAAE
:100778000603704794EA0C0F0CEA135518BF95EA64
:100788000C0F0CD050EA410618BF52EA4306D1D1EB
:1007980081EA030101F000414FF0000070BD50EA0A
:1007A800410606BF1046194652EA430619D094EA94
:1007B8000C0F02D150EA013613D195EA0C0F05D17E
:1007C80052EA03361CBF104619460AD181EA0301D2
:1007D80001F0004141F0FE4141F470014FF000008A
:1007E80070BD41F0FE4141F4780170BD70B54FF025
:1007F800FF0C4CF4E06C1CEA11541DBF1CEA1355A5
:1008080094EA0C0F95EA0C0F00F0A7F8A4EB050486
:1008180081EA030E52EA03354FEA013100F088807D
:100828004FEA03334FF0805545EA131343EA126346
:100838004FEA022245EA111545EA10654FEA0026FB
:100848000EF000419D4208BF964244F1FD0404F5B4
:10085800407402D25B084FEA3202B61A65EB030510
:100868005B084FEA32024FF480104FF4002CB6EBCD
:10087800020E75EB030E22BFB61A754640EA0C004D
:100888005B084FEA3202B6EB020E75EB030E22BF8D
:10089800B61A754640EA5C005B084FEA3202B6EBCE
:1008A800020E75EB030E22BFB61A754640EA9C008D
:1008B8005B084FEA3202B6EB020E75EB030E22BF5D
:1008C800B61A754640EADC0055EA060E18D04FEA1B
:1008D800051545EA16754FEA06164FEAC30343EABB
:1008E80052734FEAC2025FEA1C1CC0D111F4801F88
:1008F8000BD141EA00014FF000004FF0004CB6E781
:1009080011F4801F04BF01430020B4F1FD0C88BF1F
:10091800BCF5E06F3FF6AFAEB5EB030C04BFB6EB2A
:10092800020C5FEA500C50F1000041EB045170BD1D
:100938000EF0004E4EEA113114EB5C04C2BFD4EB4A
:100948000C0541EA045170BD41F480114FF0000ECE
:10095800013C90E645EA060E8DE60CEA135594EA4A
:100968000C0F08BF95EA0C0F3FF43BAF94EA0C0F4D
:100978000AD150EA01347FF434AF95EA0C0F7FF4C2
:1009880025AF104619462CE795EA0C0F06D152EA16
:1009980003353FF4FDAE1046194622E750EA4106FA
:1009A80018BF52EA43067FF4C5AE50EA41047FF40B
:1009B8000DAF52EA43057FF4EBAE12E74A0011D2BD
:1009C80012F5001211D20DD56FF47873B3EB6252A1
:1009D8000ED44FEAC12343F0004343EA505323FAAD
:1009E80002F070474FF00000704750EA013002D122
:1009F8004FF0FF3070474FF00000704780F0004024
:100A080002E000BF81F0004142001FBF5FEA4103DE
:100A180092EA030F7FEA226C7FEA236C6AD04FEADE
:100A28001262D2EB1363C1BFD21841404840414023
:100A3800B8BF5B42192B88BF704710F0004F40F4D5
:100A4800000020F07F4018BF404211F0004F41F4F1
:100A5800000121F07F4118BF494292EA030F3FD0BD
:100A6800A2F1010241FA03FC10EB0C00C3F12003D0
:100A780001FA03F100F0004302D5494260EB40005F
:100A8800B0F5000F13D3B0F1807F06D340084FEACA
:100A9800310102F10102FE2A51D2B1F1004F40EBBF
:100AA800C25008BF20F0010040EA03007047490027
:100AB80040EB0000013A28BFB0F5000FEDD2B0FAC4
:100AC80080FCACF1080CB2EB0C0200FA0CF0AABFE7
:100AD80000EBC25052421843BCBFD0401843704785
:100AE80092F0000F81F4000106BF80F4000001328B
:100AF800013BB5E74FEA41037FEA226C18BF7FEA62
:100B0800236C21D092EA030F04D092F0000F08BFA3
:100B18000846704790EA010F1CBF0020704712F08A
:100B28007F4F04D1400028BF40F00040704712F1C9
:100B380000723CBF00F50000704700F0004343F02E
:100B4800FE4040F4000070477FEA226216BF084664
:100B58007FEA23630146420206BF5FEA412390EA27
:100B6800010F40F4800070474FF0000304E000BF1D
:100B780010F0004348BF40425FEA000C08BF7047CE
:100B880043F0964301464FF000001CE050EA010292
:100B980008BF70474FF000030AE000BF50EA0102A7
:100BA80008BF704711F0004302D5404261EB410194
:100BB8005FEA010C02BF84460146002043F0B643B9
:100BC80008BFA3F18053A3F50003BCFA8CF2083ADE
:100BD800A3EBC25310DB01FA02FC634400FA02FCE7
:100BE800C2F12002BCF1004F20FA02F243EB0200EE
:100BF80008BF20F00100704702F1200201FA02FC50
:100C0800C2F1200250EA4C0021FA02F243EB020042
:100C180008BF20EADC707047844641EA000313F0FD
:100C2800030349D1403A23D30B6803604B68436000
:100C38008B688360CB68C3600B6903614B69436150
:100C48008B698361CB69C3610B6A03624B6A436238
:100C58008B6A8362CB6AC3620B6B03634B6B436320
:100C68008B6B8363CB6BC36340304031403ADBD23C
:100C780030320BD30B6803604B6843608B6883602A
:100C8800CB68C36010301031103AF3D20C3205D360
:100C980051F8043B40F8043B043AF9D2043208D036
:100CA800D2071CBF11F8013B00F8013B01D30B88A8
:100CB80003806046704700BF082A13D38B07B1D062
:100CC80010F00303AED0C3F10403D21ADB071CBF34
:100CD80011F8013B00F8013BA4D331F8023B20F89E
:100CE800023B9FE7043AD9D3013A11F8013B00F8D7
:100CF800013BF9D20B7803704B7843708B78837083
:100D0800604670474FF0FF3C06E000BF4FF0010C13
:100D180002E000BF4FF0010C4DF804CD4FEA410C42
:100D28007FEA6C5C4FEA430C18BF7FEA6C5C1BD00F
:100D380001B050EA410C0CBF52EA430C91EA030F90
:100D480002BF90EA020F0020704710F1000F91EAED
:100D5800030F58BF994208BF90422CBFD8176FEABB
:100D6800E37040F0010070474FEA410C7FEA6C5C89
:100D780002D150EA013C07D14FEA430C7FEA6C5C90
:100D8800D6D152EA033CD3D05DF8040B704700BFBC
:100D98008446104662468C461946634600E000BF0A
:100DA80001B5FFF7B7FF002848BF10F1000F01BDDC
:100DB8004DF808EDFFF7F4FF0CBF012000205DF8A7
:100DC80008FB00BF4DF808EDFFF7EAFF34BF01202C
:100DD80000205DF808FB00BF4DF808EDFFF7E0FFC5
:100DE80094BF012000205DF808FB00BF4DF808ED16
:100DF800FFF7CEFF94BF012000205DF808FB00BF7D
:100E08004DF808EDFFF7C4FF34BF012000205DF85E
:100E180008FB00BF4FEA410C7FEA6C5C02D150EA44
:100E2800013C0AD14FEA430C7FEA6C5C02D152EADA
:100E3800033C02D14FF0000070474FF001007047AB
:100E48004FEA410212F5001215D211D56FF47873EA
:100E5800B3EB625212D94FEAC12343F0004343EA8D
:100E6800505311F0004F23FA02F018BF4042704768
:100E78004FF00000704750EA013005D111F00040F2
:100E880008BF6FF0004070474FF00000704700BF88
:100E980053B94AB9002908BF00281CBF4FF0FF31D9
:100EA8004FF0FF3000F06EB9ADF1080C6DE904CEDB
:100EB80000F006F8DDF804E0DDE9022304B070472D
:100EC8002DE9F047089E0D4604468E46002B40F05B
:100ED80083808A42174647D9B2FA82F34BB1C3F1ED
:100EE800200105FA03FE20FA01F19F4041EA0E0EA7
:100EF8009C404FEA1748BEFBF8FC1FFA87F908FB2D
:100F08001CE20CFB09F0210C41EA024290420AD98A
:100F1800BA180CF1FF3180F01881904240F2158127
:100F2800ACF1020C3A44121AB2FBF8F008FB10229A
:100F380000FB09F1A4B244EA0244A14209D93C19D0
:100F480000F1FF3280F00381A14240F200810238B3
:100F58003C44641A002140EA0C401EB10022DC40E7
:100F6800C6E90042BDE8F08702B9FFDEB2FA82F3B3
:100F7800002B4FD18D1A01214FEA124E1FFA82F829
:100F8800B5FBFEFC0EFB1C5508FB0CF0220C42EADC
:100F98000545A84207D97D190CF1FF3202D2A842B3
:100FA80000F2E98094462D1AB5FBFEF00EFB1055B1
:100FB80008FB00F8A4B244EA0544A04507D93C1947
:100FC80000F1FF3202D2A04500F2D9801046A4EB0E
:100FD800080440EA0C40C0E78B4208D9002E00F014
:100FE800B1800021C6E900050846BDE8F087B3FADC
:100FF80083F100294BD1AB4202D3824200F2B9807F
:10100800841A65EB030301209E46002EAAD0C6E988
:10101800004EA7E79F40C3F12002D1404FEA174E88
:10102800B1FBFEF01FFA87F80EFB101124FA02F24A
:101038009D4000FB08FC2A43150C45EA0145AC45D8
:1010480004FA03F409D97D1900F1FF3180F08F808B
:10105800AC4540F28C8002383D44A5EB0C05B5FB4D
:10106800FEF10EFB115C01FB08F995B245EA0C454F
:10107800A94507D97D1901F1FF3274D2A94572D962
:1010880002393D44A5EB090541EA004178E7C1F181
:1010980020078B4022FA07FC4CEA030C25FA07F4D8
:1010A8004FEA1C4EB4FBFEF91FFA8CF80EFB1944EC
:1010B80020FA07F309FB08FA8D401D432B0C43EA7D
:1010C8000444A24502FA01F200FA01F309D91CEB23
:1010D800040409F1FF3048D2A24546D9A9F1020912
:1010E8006444A4EB0A04B4FBFEF00EFB104400FBBE
:1010F80008FAADB245EA0444A24508D91CEB040439
:1011080000F1FF352DD2A2452BD90238644440EABC
:101118000940A0FB0289A4EB0A044C45C6464D468B
:1011280019D316D05EB1B3EB0E0264EB050404FAD2
:1011380007F722FA01F31F43CC40C6E900740021E7
:10114800BDE8F087314630460CE78C46EBE61046A2
:10115800FFE64345E6D2B8EB020E69EB0C05013811
:10116800E0E72846D3E711468CE78146B9E7084609
:1011780073E7084649E7ACF1020C3D4413E702382F
:101188003C4424E7704700BF10B504460E4B18785E
:101198004FF47A73B3FBF0F30C4A1068B0FBF3F02A
:1011A80000F096F868B90F2C01D901200AE0002256
:1011B80021464FF0FF3000F057F8054B1C60002027
:1011C80000E0012010BD00BF000000202400002026
:1011D8000400002008B5074A136843F010031360A1
:1011E800032000F02FF80F20FFF7CEFF02F07EFC5F
:1011F800002008BD00200240034A1168034B1B78F9
:101208000B441360704700BFF40900200000002061
:10121800014B1868704700BFF409002038B5044630
:10122800FFF7F6FF0546B4F1FF3F02D0044B1B78E9
:101238001C44FFF7EDFF401BA042FAD338BD00BFA6
:1012480000000020074AD36823F4E0631B041B0C4A
:10125800000200F4E060034343F0BF6343F400334B
:10126800D360704700ED00E030B4174BDB68C3F380
:101278000223C3F10704042C28BF04241D1D062DD6
:1012880018D9033B4FF0FF3505FA04F421EA0401AD
:10129800994005FA03F322EA0303194300280BDBFC
:1012A8000901C9B200F1604000F5614080F80013FF
:1012B80030BC70470023E5E700F00F000901C9B210
:1012C800024B1954F4E700BF00ED00E014ED00E014
:1012D8000138B0F1807F0AD2064B5860064AF021E7
:1012E80082F823100020986007221A6070470120B6
:1012F800704700BF10E000E000ED00E0F0B482B0FD
:1013080000252C46ABE0854FBB4210D007D9844F4F
:10131800BB420CD007F58037BB4208D013E0A7F5D5
:101328008017BB4203D007F57027BB4207D18B68F3
:10133800002B60D0012B59D04261082503E0A7F5A6
:101348008017BB42F3D0FF2E57D88446FF2E57D8BC
:10135800A200DCF800300F27974023EA070305FABC
:1013680002F21343CCF800304B6813F0805F75D05D
:101378006C4B9A6942F001029A619B6903F0010380
:101388000193019BA208971C674B53F827C004F0F0
:1013980003039F000F23BB402CEA030C634B9842C6
:1013A80034D003F58063984200F0948003F580639D
:1013B800984200F0918003F58063984200F08E8097
:1013C80003F58063984200F08B8003F580639842B0
:1013D8001AD006231BE0CD68B5E7CD680435B2E71F
:1013E800CD680835AFE7CD680C35ACE70261082554
:1013F800A9E70025A7E70425A5E700F1040CA5E760
:10140800A4F108029200A4E7052300E00023BB40F2
:1014180043EA0C030232444F47F822304B6813F476
:10142800801F5FD0424A9368334393604B6813F43C
:10143800001F5DD03E4AD3683343D3604B6813F432
:10144800003F5BD03A4A5368334353604B6813F408
:10145800803F59D0364A13681E43166001340B6822
:1014680033FA04F256D00122A24003EA020632EA15
:101478000303F3D14B68122B3FF645AF122B3FF60F
:1014880062AF01A757F823F037130008DF130008ED
:10149800E9130008FB1300084F1300084F13000856
:1014A8004F1300084F1300084F1300084F1300088C
:1014B8004F1300084F1300084F1300084F1300087C
:1014C8004F1300084F1300084F130008E3130008D8
:1014D800EF13000801239AE7022398E7032396E70E
:1014E800042394E7124A936823EA060393609DE76E
:1014F8000F4AD36823EA0603D3609FE70C4A536870
:1015080023EA06035360A1E7094A136823EA06069B
:101518001660A3E702B0F0BC704700BF00002210BD
:101528000000311000100240000001400008014096
:10153800000401408368194201D00120704700204F
:1015480070470AB101617047090401617047036877
:101558005A6912F4806F01D1002070476FF48062DD
:101568005A6100230363202280F83D2080F83E3032
:10157800026C42F00402026480F83C30012070479B
:101588002DE9F04780460D461646994640E0FFF79C
:101598003FFE089BC01A484502D8B9F1000F37D161
:1015A800012F1CD0D8F800309B6925EA03039BB2B1
:1015B800B3FA83F35B099A452AD10023C8F830307F
:1015C800202288F83D2088F83E30D8F8402042F0A4
:1015D8002002C8F8402088F83C30012027E0D8F8DD
:1015E80000305B6925EA03039BB2B3FA83F35B0916
:1015F800E1E7D8F800309C6925EA0404A4B2B4FAFB
:1016080084F46409B246A64210D1B9F1FF3FBED1B5
:10161800C5F30747012FECD1D8F800305C6925EAFB
:101628000404A4B2B4FA84F46409EBE70020BDE82A
:10163800F0872DE9F84305460E469046994653E053
:101648001A6842F400721A602B686FF480625A615B
:1016580000232B63202285F83D2085F83E302A6C34
:1016680042F004022A6485F83C3001204AE0FFF782
:10167800CFFDA0EB0900404502D8B8F1000F33D1E7
:10168800012F17D02B689B6926EA03039BB2003B06
:1016980018BF012343B300232B63202285F83D2084
:1016A80085F83E302A6C42F020022A6485F83C30E6
:1016B800012027E02B685B6926EA03039BB2003B05
:1016C80018BF0123E6E72B689C6926EA0404A4B244
:1016D800003C18BF0124A4B12B685A6912F4806F2A
:1016E800AED1B8F1FF3FC2D1C6F30747012FEAD107
:1016F8002B685C6926EA0404A4B2003C18BF0124E4
:10170800E9E70020BDE8F88370B504460D461646A3
:1017180023685B6913F0800F21D12046FFF717FF7C
:10172800F8B9B5F1FF3FF3D0FFF772FD801BA8426F
:1017380001D8002DECD123685B6913F0800FE7D145
:1017480000232363202284F83D2084F83E30226C55
:1017580042F02002226484F83C30012000E000209E
:1017680070BD0120FCE700002DE9F04385B0044678
:101778000D4691461F46DDF830800D9E03681968B6
:1017880041F4807119600096434600224FF0011120
:10179800FFF7F6FE60B9236805F0FE051D613346C4
:1017A800424626492046FFF744FF68B1012008E079
:1017B80023681B6813F4807F02D04FF400732364FE
:1017C800032005B0BDE8F0830023039323685A691A
:1017D80003929B690393039B324641462046FFF7D9
:1017E80093FF30B9012F0FD123685FFA89F61E6184
:1017F800E7E7236C042B01D00120E2E72268136895
:1018080043F400731360F7E723684FEA19221A615B
:10181800324641462046FFF777FF20B923685FFA32
:1018280089F61E61CDE7236C042B01D00120C8E79F
:101838002268136843F400731360F7E7020001009D
:1018480070B504460D46164623685B6913F0040F0D
:1018580021D12046FFF77BFEF8B9B5F1FF3FF3D061
:10186800FFF7D6FC801BA84201D8002DECD12368D5
:101878005B6913F0040FE7D100232363202284F867
:101888003D2084F83E30226C42F02002226484F825
:101898003C30012000E0002070BD0120FCE7000082
:1018A800002800F0CC80F8B5044690F83D30002BB5
:1018B80077D0242384F83D302268136823F001038D
:1018C80013602268136843F40043136022681368A6
:1018D80023F40043136000F07DFC62685A4B9A427F
:1018E80064D85A4B98428CBF00230123002B40F048
:1018F800A880574DA5FB0035AF0C2668716821F00C
:101908003F0141EA9541716021680B6A23F03F036A
:1019180065684D4A95424FD87A1C13430B62256877
:10192800E96921F44F4121F0FF016368464A934277
:101938004CD801385B00B0FBF3F0013040F6FC7383
:10194800184278D0C0F30B030B43EB6121680B6896
:1019580023F0C003E269206A024313430B60216845
:101968008B6823F4034323F0FF032269E0680243F2
:1019780013438B602168CB6823F0FF036269A06979
:1019880002431343CB602268136843F001031360DA
:1019980000202064202384F83D30206384F83E0032
:1019A800F8BD80F83C3001F085FB82E7294B98426E
:1019B8008CBF0023012399E74FF4967202FB07F2CC
:1019C800254DA5FB025292090132A6E7A268BAB9D1
:1019D800461E03EB4307B6FBF7F60136C6F30B06C4
:1019E800B6FA86F6760946BBC2B9421E03EB430334
:1019F800B2FBF3F20132C2F30B0242F40043A3E755
:101A0800461E03EB830707EB8707B6FBF7F601369D
:101A1800C6F30B06B6FA86F67609E4E7421E03EB30
:101A2800830303EB8303B2FBF3F20132C2F30B022D
:101A380042F4404388E7042386E7012384E7012032
:101A480070470120ACE700BFA08601007F841E001C
:101A580083DE1B43FF083D00D34D62102DE9F043A0
:101A680083B004460F46904699460C9EFFF7D0FB7C
:101A7800054694F83D00C0B2202803D0022003B0E8
:101A8800BDE8F0830095192301224B492046FFF752
:101A980077FD002840F0898094F83C30012B00F055
:101AA8008680012384F83C3023681A6812F0010FFD
:101AB80003D11A6842F001021A602268136823F4FD
:101AC80000631360212384F83D30402384F83E30BE
:101AD800002323640A9B6362BDF82C306385638D01
:101AE8002385364BE362019500964B4642463946BC
:101AF8002046FFF739FE00285BD1238D002B35D017
:101B08002A4631462046FFF7FFFD20BB626A23685C
:101B180012781A61616A4B1C6362228D013A92B293
:101B28002285638D9BB2013B9BB26385236858690C
:101B380010F0040FE1D0002ADFD04A781A61636AF6
:101B480001336362238D013B2385638D9BB2013B87
:101B58009BB26385D1E7236C042B01D001208EE76B
:101B68002268136843F400731360F7E72A46314686
:101B78002046FFF765FE50B1236C042B01D00120ED
:101B88007DE72268136843F400731360F7E722685F
:101B9800136843F400731360202384F83D30002356
:101BA80084F83E3084F83C3069E7022067E7022079
:101BB80065E7012063E700BF020010000000FFFF97
:101BC800014B01221A60704720000E4282B0084B78
:101BD8001B68084AA2FB03235B0A00FB03F301937B
:101BE80000BF019B5A1E0192002BF9D102B0704729
:101BF80024000020D34D6210002800F0F18170B558
:101C080082B00446036813F0010F2CD0AA4B5B681E
:101C180003F00C03042B1DD0A74B5B6803F00C03E7
:101C2800082B12D06368B3F5803F41D0002B55D103
:101C380003F1804303F504331A6822F480321A60F2
:101C48001A6822F480221A6037E09B4B5B6813F411
:101C5800803FE7D0984B1B6813F4003F03D06368BC
:101C6800002B00F0BF81236813F0020F75D0924B50
:101C78005B6813F00C0F5FD08F4B5B6803F00C03AD
:101C8800082B54D02369002B00F089808B4B01224C
:101C98001A60FFF7BDFA0546874B1B6813F0020F61
:101CA80074D1FFF7B5FA401B0228F5D903209EE14D
:101CB800814A136843F480331360636843B3FFF7C2
:101CC800A7FA05467C4B1B6813F4003FCBD1FFF7FE
:101CD8009FFA401B6428F5D9032088E1B3F5A02FAB
:101CE80009D0754B1A6822F480321A601A6822F4F7
:101CF80080221A60E1E703F18043A3F53C331A68B8
:101D080042F480221A601A6842F480321A60D4E7DA
:101D1800FFF77EFA0546684B1B6813F4003FA2D014
:101D2800FFF776FA401B6428F5D903205FE1624B80
:101D38005B6813F4803FA5D15F4B1B6813F0020F5B
:101D480003D02369012B40F04F815B4A136823F0CD
:101D5800F803616943EAC1031360236813F0080FAD
:101D680032D0A369002B45D0554B01221A60FFF7EA
:101D78004FFA0546504B5B6A13F0020F21D1FFF76B
:101D880047FA401B0228F5D9032030E14A4A136874
:101D980023F0F803616943EAC1031360DDE7474BA9
:101DA80000221A60FFF734FA0546434B1B6813F00C
:101DB800020FD2D0FFF72CFA401B0228F5D90320D6
:101DC80015E10120FFF702FF236813F0040F00F06C
:101DD8009780394BDB6913F0805F1DD1364BDA6988
:101DE80042F08052DA61DB6903F080530193019B72
:101DF800012512E0324B00221A60FFF709FA054666
:101E08002D4B5B6A13F0020FDED0FFF701FA401B7F
:101E18000228F5D90320EAE000252A4B1B6813F4B1
:101E2800807F11D0E368012B22D0002B38D103F139
:101E3800804303F504331A6A22F001021A621A6A0F
:101E480022F004021A6218E01E4A136843F48073F1
:101E58001360FFF7DDF906461A4B1B6813F4807F01
:101E6800E0D1FFF7D5F9801B6428F5D90320BEE03F
:101E7800114A136A43F001031362E36873B3FFF76F
:101E8800C7F906460C4B1B6A13F0020F37D1FFF750
:101E9800BFF9801B41F288339842F3D90320A6E0AA
:101EA800052B11D0044B1A6A22F001021A621A6A31
:101EB80022F004021A62E0E70010024000004242E9
:101EC80080044242007000404D4B1A6A42F00402FE
:101ED8001A621A6A42F001021A62CEE7FFF798F90D
:101EE8000646474B1B6A13F0020F08D0FFF790F91C
:101EF800801B41F288339842F3D9032077E0E5B993
:101F0800E369002B72D03E4A526802F00C02082A9C
:101F180056D0022B17D03B4B00221A60FFF778F9F6
:101F28000446374B1B6813F0007F47D0FFF770F962
:101F3800001B0228F5D9032059E0314AD36923F060
:101F48008053D361DCE72F4B00221A60FFF760F95A
:101F580005462B4B1B6813F0007F06D0FFF758F996
:101F6800401B0228F5D9032041E0236AB3F5803FDE
:101F78001AD023494B6823F47413226A606A024317
:101F880013434B601F4B01221A60FFF741F90446C7
:101F98001B4B1B6813F0007F0ED1FFF739F9001BAC
:101FA8000228F5D9032022E0154A536823F40033A8
:101FB800A1680B435360DCE7002018E0002016E01E
:101FC800012B16D00E4B5B6803F48031226A9142D4
:101FD80011D103F47013626A93420ED1002006E017
:101FE80001207047012002E0012000E0002002B03B
:101FF80070BD0120FBE70120F9E70120F7E700BFEA
:1020080000100240600042420F4B5B6803F00C0274
:10201800082A01D00D487047C3F383420C498A5CF3
:1020280013F4803F0BD0084B5B68C3F34043094966
:10203800CB5C064800FB02F0B0FBF3F070470648A3
:1020480000FB02F0704700BF0010024000127A0047
:10205800A0900008B090000800093D00002800F09A
:10206800A08070B50D460446524B1B6803F0070369
:102078008B420BD24F4A136823F007030B431360BC
:10208800136803F007038B4240F08D80236813F038
:10209800020F17D013F0040F04D0474A536843F4D3
:1020A800E0635360236813F0080F04D0424A536872
:1020B80043F460535360404A536823F0F003A16827
:1020C8000B435360236813F0010F31D06368012B71
:1020D80020D0022B25D0384A126812F0020F64D0A3
:1020E80035494A6822F0030213434B60FFF790F822
:1020F8000646314B5B6803F00C036268B3EB820F52
:1021080016D0FFF785F8801B41F288339842F0D942
:10211800032045E0284A126812F4003FE0D101206C
:102128003EE0254A126812F0007FD9D1012037E03D
:10213800204B1B6803F00703AB420AD91D4A1368FA
:1021480023F007032B431360136803F00703AB4224
:102158002DD1236813F0040F06D0174A536823F4CF
:10216800E063E1680B435360236813F0080F07D05E
:10217800114A536823F46053216943EAC103536049
:10218800FFF742FF0C4B5B68C3F303130B4AD35CA6
:10219800D8400B4B18600B4B1868FEF7F5FF002072
:1021A80070BD012070470120FAE70120F8E70120FF
:1021B800F6E700BF0020024000100240349C0008EF
:1021C8002400002004000020014B1868704700BF5D
:1021D8002400002008B5FFF7F7FF044B5B68C3F342
:1021E8000223034AD35CD84008BD00BF0010024058
:1021F800449C000808B5FFF7E7FF044B5B68C3F38E
:10220800C223034AD35CD84008BD00BF0010024077
:10221800449C000870B582B00446036813F0010FAF
:1022280034D03E4BDB6913F0805F47D13B4BDA6912
:1022380042F08052DA61DB6903F080530193019B1D
:102248000125374B1B6813F4807F39D0334B1B6A49
:1022580013F4407311D0626802F440729A420CD0B1
:102268002E4A136A23F440702E4901260E60002678
:102278000E60106213F0010F36D1284A136A23F456
:10228800407361680B431362002D3ED1236813F03D
:10229800020F06D0214A536823F44043A1680B4338
:1022A8005360236813F0100F34D01C4A536823F48A
:1022B800800361690B43536000202CE00025C0E7D0
:1022C800174A136843F480731360FEF7A1FF0646AC
:1022D800134B1B6813F4807FB8D1FEF799FF801B5E
:1022E8006428F5D9032016E0FEF792FF06460B4B4B
:1022F8001B6A13F0020FC0D1FEF78AFF801B41F260
:1023080088339842F3D9032005E0D36923F080533A
:10231800D361BBE7002002B070BD00BF00100240CF
:10232800007000404004424208B501380F2863D8C5
:10233800DFE800F03557622F6262623262626262E1
:10234800626262082F4B5A68186810F0807054D087
:10235800C2F383432C49C85C12F4803F15D0294B43
:102368005B68C3F34043294AD25C294BB3FBF2F3C1
:1023780000FB03F0234B5B6813F4800F3DD1400052
:10238800244BA3FB0030400837E0234B03FB00F04D
:10239800F0E7FFF739FE30E0FFF736FE2DE0194B86
:1023A8001B6A40F202321A40B2F5817F26D003F44C
:1023B8004073B3F5007F04D0B3F5407F09D0002007
:1023C8001BE0104A526A12F0020FF5D049F640405D
:1023D80013E00C4B186810F400300ED04FF2244074
:1023E8000BE0FFF707FF074B5B68C3F3813301334B
:1023F8005B00B0FBF3F000E0002008BD4FF40040A4
:10240800FBE700BF00100240B4900008C490000829
:1024180000127A00ABAAAAAA00093D0038B5044602
:10242800FEF7F6FE054623685A6812F0200F07D11A
:10243800FEF7EEFE401BB0F57A7FF4D9032004E0E6
:102448005A6842F010025A60002038BD38B5044678
:102458000268536823F010035360FEF7D9FE05465F
:1024680023685B6813F0200F07D1FEF7D1FE401BED
:10247800B0F57A7FF4D9032000E0002038BDC0B160
:1024880038B505460268536823F008035360FEF721
:10249800BFFE04462B685B6813F0080F07D1FEF7F0
:1024A800B7FE001BB0F57A7FF4D9032000E00020C6
:1024B80038BD012070470000002850D010B50446F0
:1024C800437C4BB1022363742046FFF7D8FF38B131
:1024D80004236374012010BD037401F02FF9F1E7A0
:1024E8002046FFF79BFF28BB2268536823F00703A9
:1024F8005360A36823B11B4A136B23F001031363D2
:10250800184AD36A23F46073A1680B43D3626368E3
:10251800B3F1FF3F12D02268C3F3034191602268F0
:102528009BB2D3602046FFF791FF88B10423637400
:102538000120D0E7042363740120CCE70120FFF7D2
:10254800F3FE08B1431EE6E7042363740120C2E7E3
:102558000023E37301236373A3736374BBE7012050
:10256800704700BF006C004030B4036A056A25F06C
:1025780001050562846924F0F00444EA021423F09A
:102588000A030B438461036230BC704730B4036AAA
:10259800056A25F010050562846924F4704444EA4C
:1025A800023423F0A00343EA01138461036230BCC0
:1025B8007047836823F070030B4343F0070383607D
:1025C8007047000090F83D30DBB2012B2AD102237E
:1025D80080F83D300368154A934218D002F500622E
:1025E800934214D0B3F1804F11D0A2F598329342A0
:1025F8000DD002F58062934209D002F580629342C1
:1026080005D01A6842F001021A60002070479A68E3
:1026180002F00702062A07D01A6842F001021A607F
:10262800002070470120704700207047002C0140AF
:102638000368196A41F21112114208D1196A40F26D
:102648004442114203D11A6822F001021A600123A0
:1026580080F83D30002070470368244A904212D029
:1026680002F5006290420ED0B0F1804F0BD0A2F577
:102678009832904207D002F58062904203D002F56A
:102688008062904203D123F070034A681343174ACB
:10269800904212D002F5006290420ED0B0F1804F05
:1026A8000BD0A2F59832904207D002F58062904292
:1026B80003D002F58062904203D123F44073CA68C4
:1026C800134323F080034A69134303608B68C36292
:1026D8000B688362054B984203D003F50063984268
:1026E80001D10B690363012343617047002C01404A
:1026F80040B310B5044690F83D30F3B1022384F896
:102708003D30214651F8040BFFF7A6FF012384F85A
:10271800463084F83E3084F83F3084F8403084F8FE
:10272800413084F8423084F8433084F8443084F8E7
:10273800453084F83D30002010BD80F83C3001F071
:10274800BBFADBE70120704710B4846824F47F44A7
:1027580042EA03220A432243826010BC704790F881
:102768003C30012B78D010B50446012380F83C306A
:10277800022380F83D300268936823F47F4323F0F6
:10278800770393600B68602B4CD029D8402B54D02A
:102798000CD9502B22D1CA6849680068FFF7E4FEBB
:1027A80050212068FFF705FF002005E0202B0DD001
:1027B80009D9302B0AD00120012384F83D300023A9
:1027C80084F83C3010BD0BB1102B05D11946206898
:1027D800FFF7EFFE0020EFE70120EDE70120EBE730
:1027E800B3F5805F34D0B3F5005F0CD1CB684A688D
:1027F80089680068FFF7A8FF2268936843F480435C
:1028080093600020D8E7702B24D1CB684A68896888
:102818000068FFF799FF2268936843F07703936095
:102828000020C9E7CA6849680068FFF7AFFE602161
:102838002068FFF7BEFE0020BEE7CA684968006846
:10284800FFF792FE40212068FFF7B3FE0020B3E7B0
:102858000020B1E70120AFE70220704790F83C3034
:10286800012B33D030B4012380F83C30022380F8A8
:102878003D3003685C689D6824F070040A68224350
:102888005A600368124A934212D002F500629342DA
:102898000ED0B3F1804F0BD0A2F59832934207D0F7
:1028A80002F58062934203D002F58062934204D11C
:1028B80025F080054A6815439D60012380F83D3066
:1028C800002380F83C30184630BC7047022070471F
:1028D800002C014010B504460268136923F44053E4
:1028E800C1680B43136183680269134342691A4341
:1028F8000168CB6823F4B05323F00C031343CB6077
:102908000268536923F4407381690B435361026879
:10291800124B9A421FD0FFF75DFC00EB800303EBDC
:10292800830362689200B3FBF2F20D48A0FB023108
:102938004909642303FB11231B013233A0FB032342
:102948005B0903F0F00202EB011203F00F032168A8
:1029580013448B6010BDFFF74DFCDEE700380140E3
:102968001F85EB512DE9F84305460F461646994653
:10297800DDF820802C68246837EA04030CBF0124A2
:102988000024B4422DD1B8F1FF3FF3D0B8F1000FC5
:1029980005D0FEF73DFCA0EB09004045EAD92A68BE
:1029A80002F10C0353E8003F23F4D0730C3242E8E1
:1029B80000310029F3D12A6802F1140353E8003FDB
:1029C80023F00103143242E800310029F3D1202317
:1029D80085F8413085F84230002385F840300320DF
:1029E80000E00020BDE8F88360B310B5044690F815
:1029F800413013B3242384F841302268D36823F488
:102A08000053D3602046FFF765FF2268136923F45B
:102A1800904313612268536923F02A0353612268A3
:102A2800D36843F40053D36000206064202384F803
:102A3800413084F84230606310BD80F8403001F0C6
:102A48000DFAD7E7012070472DE9F04182B01E4604
:102A580090F84130DBB2202B4BD104460D4690460E
:102A680000294AD00AB9012044E000234364212305
:102A780080F84130FEF7CCFB0746A4F82480A4F880
:102A88002680A368B3F5805F02D04FF000080FE0FE
:102A98002369FBB14FF000080AE038F8023B2268CE
:102AA800C3F308035360E28C92B2013A92B2E28413
:102AB800E38C9BB28BB100963B46002280212046D6
:102AC800FFF750FFD8B9002DE7D015F8012B236880
:102AD8005A60E8E7A8460025EAE700963B46002248
:102AE80040212046FFF73EFF58B9202384F84130A3
:102AF80000E0022002B0BDE8F0810120FAE70320DF
:102B0800F8E70320F6E7000010B50E4C01228021FB
:102B18002046FEF716FD012240212046FEF711FD52
:102B2800052001F017F9002280212046FEF709FD53
:102B3800052001F00FF9002240212046FEF701FD93
:102B480010BD00BF000C014010B50B4C00228021C5
:102B58002046FEF7F6FC012240212046FEF7F1FC54
:102B6800052001F0F7F8012280212046FEF7E9FC54
:102B7800052001F0EFF810BD000C014010B584B03D
:102B88000446C0230093012301930223039369465B
:102B98001148FEF7B3FB012C18D0ACB900228021F4
:102BA8000D48FEF7CEFC0C4C012240212046FEF7D2
:102BB800C8FC052001F0CEF8002240212046FEF78F
:102BC800C0FC052001F0C6F804B010BD0122802128
:102BD8000148FEF7B6FCE6E7000C014030B585B0C9
:102BE800002301930223039380250095164C694620
:102BF8002046FEF783FB012240212046FEF7A1FC78
:102C0800052001F0A7F829462046FEF793FC012885
:102C180015D00E4B00221A700B4C00224021204682
:102C2800FEF78FFC052001F095F801230193694612
:102C38002046FEF763FB054B187805B030BD034B03
:102C480001221A70E8E700BF000C0140FB090020D0
:102C580070B50446002519E0012280211248FEF7CC
:102C680070FC6400E4B2104E012240213046FEF7A9
:102C780068FC052001F06EF8002240213046FEF77E
:102C880060FC052001F066F80135EDB2072D08D883
:102C980014F0800FE0D1002280210348FEF751FC98
:102CA800DFE7FFF79BFF70BD000C014008B5FFF799
:102CB8002BFF4620FFF7CCFF0120FFF7C9FFFFF7E6
:102CC80043FF08BD10B50446FFF71EFF4620FFF777
:102CD800BFFF2046FFF7BCFFFFF736FF10BD00001F
:102CE80070B584B0002501958026009602230393D1
:102CF8001A4C69462046FEF701FB01223146204660
:102D0800FEF71FFC2C460BE02043C4B200224021F2
:102D18001248FEF716FC052001F01CF80135EDB24B
:102D2800072D12D86400E4B20C4E0122402130462F
:102D3800FEF707FC052000F0E5FF80213046FEF78E
:102D4800F9FB0128E0D00020DEE701230193694662
:102D58000248FEF7D3FA204604B070BD000C0140CB
:102D680010B5FFF7D1FE4720FFF772FF002404E0FB
:102D78000120FFF703FF0134E4B2022C09D8FFF762
:102D8800AFFF074B1855032CF2D00020FFF7F6FED3
:102D9800F1E7FFF7D9FE052000F0CEFF10BD00BF18
:102DA800F809002008B50120FFF78CFF1020FFF775
:102DB80089FFB420FEF732FAFFF7D2FF094B1A78E1
:102DC800587800EB022080B2FDF7CEFEFDF78CFBB1
:102DD8004FF03332044BFDF709FDFDF7EFFD80B2EC
:102DE80008BD00BFF80900203333F33F00B585B0B4
:102DF8004FF4006300930123019302930323039389
:102E080069460348FEF77AFA05B05DF804FB00BF8F
:102E18000020014000B585B00023039301934FF4CF
:102E2800006300930123029369460348FEF766FA9C
:102E380005B05DF804FB00BF0020014010B5FFF7A6
:102E4800D5FF0A4C00224FF400612046FEF779FBBB
:102E58001420FEF7E3F901224FF400612046FEF743
:102E680070FB1E2000F04EFF10BD00BF0020014087
:102E780010B5FFF7CFFF00244FF400611248FEF7AA
:102E880059FB012807D1632C05D80134E4B201208D
:102E980000F038FFF0E7632C12D800244FF40061EB
:102EA8000948FEF747FB38B9632C05D80134E4B26A
:102EB800012000F027FFF1E7632C03D8002010BDA4
:102EC8000120FCE70120FAE70020014010B50024AA
:102ED8004FF400611448FEF72DFB012809D1632C3B
:102EE80005D80134E4B2012000F00CFFF0E700241B
:102EF80000E000244FF400610B48FEF71BFB38B9D3
:102F0800632C05D80134E4B2012000F0FBFEF1E7A0
:102F1800282000F0F7FE4FF400610348FEF70AFB93
:102F2800012800D0002010BD0020014038B5002540
:102F3800284607E04000C4B2FFF7C8FF2043C0B2EC
:102F48000135EDB2072DF5D938BD2DE9F04782B02E
:102F58008146884617461E46FFF770FFFFF788FF31
:102F680060B982460446042C0BD8FFF7DFFF02AB9A
:102F78001D1905F8080C0134E4B2F4E74FF0010A12
:102F88000EE09DF800409DF8010023189DF80210FE
:102F98000B449DF8032013449DF80450AB4203D022
:102FA800504602B0BDE8F08789F8004088F8000074
:102FB80039703270F4E7000070B586B0114B9A6929
:102FC80042F480729A619B6903F480730193019BB8
:102FD8004FF400650295012603960023049303230A
:102FE8000593094C02A92046FEF788F9324629467E
:102FF8002046FEF7A6FAFFF721FFFFF739FF06B0D4
:1030080070BD00BF001002400020014082B00A4B92
:103018009A6942F004029A619A6902F004020092E5
:10302800009A9A6942F008029A619B6903F00803C2
:103038000193019B02B070470010024008B50B488D
:103048000B4B03600B4B436000238360C3604FF45A
:103058008042026143618361C3610362FEF720FC21
:1030680000B908BD00F07CF8FBE700BFFC090020B0
:1030780000540040A086010008B50B480B4B0360C4
:103088000B4B436000238360C3604FF480420261AE
:1030980043618361C3610362FEF702FC00B908BDA6
:1030A80000F05EF8FBE700BF500A0020005800401F
:1030B800A086010010B588B00023049305930693F9
:1030C80007930368224A934204D0224A93421FD0AE
:1030D80008B010BD204CA36943F00803A361A3699D
:1030E80003F008030093009BC02304931223059365
:1030F8000323079304A91948FEF700F9E36943F489
:103108000013E361E36903F400130193019BDFE714
:10311800114CA36943F00803A361A36903F00803F2
:103128000293029B4FF440630493122305930323F5
:10313800079304A90948FEF7E1F8E36943F480031B
:10314800E361E36903F480030393039BC0E700BFD3
:10315800005400400058004000100240000C01409C
:1031680072B6FEE700B597B000230F93119307934B
:10317800089309930A930B9301930293039304937F
:103188000593069309220C924FF480320D920E9308
:103198000123109312930223139314924FF4E01314
:1031A80015930CA8FEF728FDC8B90F230793022131
:1031B8000891002309934FF480620A920B9307A8A1
:1031C800FEF74CFF68B9012301934FF40073029393
:1031D80001A8FFF71FF830B917B05DF804FBFFF737
:1031E800BFFFFFF7BDFFFFF7BBFF000030B585B09D
:1031F800FDF7F0FFFFF7B6FFFFF708FFFFF71EFF29
:10320800FFF73AFF00F084FA00F0E8FC00F01EFD3A
:1032180000F0F0FD00F008FE00F066F900F06BF930
:10322800FFF7CAFEFFF742FD00F036FC6420FDF709
:10323800F5FF0821202000F015FC00F035FC050CF6
:1032480084B20EE00821202000F00CFC00F02CFCD9
:10325800050C84B2734800F07DFF4FF4FA70FDF757
:10326800DDFFB5F5C87F01D1002CEBD06E4C0023F3
:1032780022461946184600F024FA01232246002166
:10328800102000F01EFA694C00232246194620201F
:1032980000F017FA0023664A1946522000F011FA86
:1032A800644D00232A460221184600F00AFA00233A
:1032B8002A460221102000F004FA002322460221A7
:1032C800202000F0FEF910235B4A0221522000F072
:1032D800DDF95A4D00232A460421184600F0F1F979
:1032E80001232A460421102000F0EBF902232A4684
:1032F8000421202000F0E5F903232A460421302088
:1033080000F0DFF9002322460421402000F0D9F91B
:1033180010234B4A0421702000F0B8F91023494AC1
:103328000621002000F0B2F9474D00232A46062165
:103338001A2000F0C6F901232A4606212A2000F0A7
:10334800C0F90023224606213A2000F0BAF91023DA
:103358003E4A0621642000F099F90821202000F057
:1033680081FB00F0A1FB050C0DF10E030DF10F021E
:1033780003A90DF10D00FFF7E8FD9DF80C3000934F
:103388009DF80D309DF80E209DF80F10304800F084
:103398007FFEFFF707FD01462A462E4800F078FE1B
:1033A8001024009402239DF80F200021302000F003
:1033B80023F923462E220021402000F0D5F800945E
:1033C80002239DF80E200021422000F015F90094F8
:1033D80002239DF80D201946302000F00DF92346F0
:1033E8002E220221402000F0BFF8009402239DF80D
:1033F8000C201946422000F0FFF8FFF7D3FC0246E4
:10340800009403230421502000F0F6F800940323CD
:103418002A4606214A2000F0EFF84FF4FA70FDF72B
:10342800FDFE9AE7C8900008B49B0008749B00084A
:103438009C910008F4990008D4900008749A000838
:10344800D8900008DC9000081C910008E090000863
:10345800E49000080091000810B584B000240EE044
:103468004FF48073029301230193074A2244009288
:10347800002278210548FEF7F1FA0134E4B21A2C4B
:10348800EED904B010BD00BF08000020500A00208B
:1034980000B587B08DF817004FF4807302930123AD
:1034A80001930DF117020092002278210248FEF7DD
:1034B800D5FA07B05DF804FB500A002000B587B0C4
:1034C8008DF817004FF480730293012301930DF1D7
:1034D80017020092402278210248FEF7BFFA07B08F
:1034E8005DF804FB500A002008B5C820FDF796FED9
:1034F800FFF7B2FF08BD38B5002501E00135EDB290
:10350800072D14D8A5F15000C0B2FFF7C1FF002065
:10351800FFF7BEFF1020FFF7BBFF002414F0800F59
:10352800ECD10020FFF7CAFF0134E4B2F6E738BD5A
:1035380010B50446A1F15000C0B2FFF7A9FF200959
:1035480040F01000FFF7A4FF04F00F00FFF7A0FF02
:1035580010BD024601204B1EDBB219B102FB00F080
:103568001946F8E770470000F8B507460E46203AB6
:10357800D5B210F0800F13D1102B15D03146384634
:10358800FFF7D6FF0024052C30D805EB4503184A71
:1035980002EB4303185DFFF791FF0134E4B2F2E751
:1035A8000236F6B20027E7E731463846FFF7C0FF94
:1035B800002407E004EB05130E4AD05CFFF77EFFFA
:1035C8000134E4B2072CF5D9711CC9B23846FFF7AB
:1035D800AFFF002408E004EB05130833054AD05C6C
:1035E800FFF76CFF0134E4B2072CF4D9F8BD00BF33
:1035F800DC910008049400082DE9F84F83468A46B8
:1036080091461E469DF828704FF00008454619E07F
:10361800780800FB05F0C0B258443B4620225146CA
:10362800C0B2FFF7A1FF0BE0780800FB05F0C0B2BD
:10363800303458443B46E2B25146C0B2FFF794FFDB
:103648000135EDB2B5421CD2711BC9B20139C9B2FC
:103658000A20FFF77EFFB9FBF0F00B4CA4FB003407
:10366800E40804EB8404A0EB4404E4B2B8F1000FCE
:10367800DAD1731E9D42D7DA002CC9D04FF0010869
:10368800D2E7BDE8F88F00BFCDCCCCCC2DE9F04116
:1036980004460E4617469846002501E00135EDB26E
:1036A8007A5D62B1434631462046FFF75DFF083434
:1036B800E4B2782CF2D90236F6B20024EEE7BDE87F
:1036C800F0812DE9F04180460F4615461E46FFF76A
:1036D8002FFF00240F2C07D805EB8613185DFFF782
:1036E800EDFE0134E4B2F5E7791CC9B24046FFF7B4
:1036F8001FFF00240F2C08D8B10120312944085D90
:10370800FFF7DCFE0134E4B2F4E7BDE8F081000025
:1037180008B50848084B03604FF0FF3343604FF487
:1037280080738360FEF7C8FE00B908BDFFF718FD77
:10373800FBE700BFA40A00200028004002680C4BE9
:103748009A4200D0704700B583B0FEF739FA094BAA
:10375800DA6942F00062DA61DB6903F00063019321
:10376800019B054B01221A6003B05DF804FB00BF02
:1037780000280040001002403C04424230B587B0A7
:10378800124CA36943F00403A361A36903F0040383
:103798000093009B202302930123039303230593A3
:1037A8000B4D02A92846FDF7A9FDA36943F00403C0
:1037B800A361A36903F004030193019B40230293CF
:1037C80002A92846FDF79AFD07B030BD0010024057
:1037D8000008014000B585B0402300930123019300
:1037E8000323039369460348FDF788FD05B05DF898
:1037F80004FB00BF0008014000B585B040230093DA
:10380800002301930323039369460348FDF776FDDC
:1038180005B05DF804FB00BF0008014010B5FFF7D4
:10382800D9FF0E4C012240212046FDF78AFE0122D5
:1038380020212046FDF785FE142000F063FA0022BF
:1038480040212046FDF77DFE142000F05BFA00229F
:1038580020212046FDF775FE10BD00BF000801407D
:1038680010B5FFF7B7FF0E4C002220212046FDF7C8
:1038780068FE002240212046FDF763FE142000F078
:1038880041FA012220212046FDF75BFE012240215A
:103898002046FDF756FE142000F034FA10BD00BF94
:1038A8000008014038B5FFF7A7FF154C0122402159
:1038B8002046FDF746FE0A2000F024FA01222021C6
:1038C8002046FDF73EFE0A2000F01CFA00244021A5
:1038D8000B48FDF72FFE054638B10134E4B2FA2C47
:1038E800F5D9FFF7BDFF012507E00022202100F1EF
:1038F800804000F58430FDF724FE284638BD00BF1F
:103908000008014010B50F4C002220212046FDF789
:1039180018FEFFF75FFF002240212046FDF711FE49
:10392800142000F0EFF9012220212046FDF709FEBE
:10393800142000F0E7F9002220212046FDF701FEBF
:1039480010BD00BF0008014010B50F4C0022202117
:103958002046FDF7F6FDFFF73DFF012240212046F6
:10396800FDF7EFFD142000F0CDF9012220212046BB
:10397800FDF7E7FD142000F0C5F9002220212046BC
:10398800FDF7DFFD10BD00BF0008014070B504461B
:10399800FFF720FF002220211848FDF7D2FD00255F
:1039A8001CE0012240211548FDF7CBFD6400E4B27C
:1039B800142000F0A7F9114E012220213046FDF70E
:1039C800C0FD142000F09EF9002220213046FDF7AA
:1039D800B8FD142000F096F90135EDB2072D08D88E
:1039E80014F0800FDDD1002240210448FDF7A9FD25
:1039F800DCE7142000F086F970BD00BF0008014024
:103A0800F8B50746FFF7F8FE0024254604E0142021
:103A180000F078F90135EDB2072D18D8104E0022C4
:103A280020213046FDF78DFD142000F06BF90122AE
:103A380020213046FDF785FD6400A4B240213046C0
:103A4800FDF778FD0028E2D00134A4B2DFE71FB902
:103A5800FFF77AFF2046F8BDFFF754FFFAE700BFEB
:103A68000008014038B505460C46FFF7D7FEB020E0
:103A7800FFF78CFFFFF716FF2846FFF787FFFFF7D2
:103A880011FF2046FFF782FFFFF70CFFFFF7E8FE64
:103A98006420FDF7C3FB38BD08B5FFF76FFE0321AF
:103AA8002020FFF7DFFF08BD10B5FFF7B7FEB120F4
:103AB800FFF76CFFFFF7F6FE0120FFF7A1FF0402F6
:103AC8000120FFF79DFF04440120FFF799FF24021E
:103AD8000120FFF795FF044424020020FFF790FF20
:103AE8000444FFF7BDFE204610BD000082B00E4B17
:103AF8009A6942F001029A619A6902F00102009201
:103B0800009ADA6942F08052DA61DB6903F0805387
:103B18000193019B054A536823F0E06343F0007367
:103B2800536002B0704700BF00100240000001401F
:103B3800FEE7FEE7FEE7FEE7FEE7704770477047DF
:103B480008B5FDF759FB08BD70B50C4616460025AB
:103B5800B54207DAAFF30080214601F8010B0135C1
:103B68000C46F5E7304670BD70B50C461646002584
:103B7800B54205DA14F8010B00F0DAF90135F7E778
:103B8800304670BD08B503460B4A126842B10A4A6E
:103B9800106803446A46934206D8074A136008BD72
:103BA800054A06491160F2E700F0F8F90C230360B2
:103BB8004FF0FF30F3E700BFB80A0020380C0020B0
:103BC8004FF0FF3070474FF400534B6000207047B0
:103BD80001207047002070477047000000B587B08B
:103BE80000230293039304930593009301931548CC
:103BF800154A02604722426083604FF6FF72C26036
:103C0800036143618361FEF773FD90B94FF48053FC
:103C1800029302A90B48FEF7A2FD68B9002300939E
:103C2800019369460748FEF719FE40B907B05DF8E9
:103C380004FBFFF795FAE9E7FFF792FAEEE7FFF7DB
:103C48008FFAF3E7BC0A0020002C014000B587B0CA
:103C5800002302930393049305930093019315485B
:103C68004FF0804202604722426083604FF6FF7245
:103C7800C26003618361FEF73BFD90B94FF4805346
:103C8800029302A90B48FEF76AFD68B90023009366
:103C9800019369460748FEF7E1FD40B907B05DF8B2
:103CA80004FBFFF75DFAE9E7FFF75AFAEEE7FFF7DB
:103CB80057FAF3E7040B002082B003680F4A9342D7
:103CC80004D0B3F1804F0CD002B070470C4B9A6906
:103CD80042F400629A619B6903F400630093009BBD
:103CE800F2E703F50433DA6942F00102DA61DB69CD
:103CF80003F001030193019BE6E700BF002C01409C
:103D08000010024010B5C0F57F44FA34A4B2094847
:103D180003685C62FEF756FC4FF6F9739C4204D8C0
:103D2800044B1B685C6AA4B2F6E70248FEF780FC05
:103D380010BD00BFBC0A002001460B46013989B2FC
:103D48003BB142F6E0631A46013B9BB2002AFAD126
:103D5800F3E77047431E9BB2002849D000BF00BF5D
:103D680000BF00BF00BF00BF00BF00BF00BF00BF53
:103D780000BF00BF00BF00BF00BF00BF00BF00BF43
:103D880000BF00BF00BF00BF00BF00BF00BF00BF33
:103D980000BF00BF00BF00BF00BF00BF00BF00BF23
:103DA80000BF00BF00BF00BF00BF00BF00BF00BF13
:103DB80000BF00BF00BF00BF00BF00BF00BF00BF03
:103DC80000BF00BF00BF00BF00BF00BF00BF00BFF3
:103DD80000BF00BF00BF00BF00BF00BF00BF00BFE3
:103DE80000BF00BF00BF00BF00BF00BF1846B1E75B
:103DF8007047000008B50A480A4B03604FF4E133E6
:103E0800436000238360C36003610C2242618361C5
:103E1800C361FEF7E9FD00B908BDFFF7A1F9FBE7AB
:103E28004C0B00200038014008B50A480A4B0360D3
:103E38004FF4E133436000238360C36003610C22C5
:103E480042618361C361FEF7CFFD00B908BDFFF78A
:103E580087F9FBE7940B00200044004010B588B0B8
:103E68000023049305930693079303682C4A93420F
:103E780004D02C4A93422BD008B010BD2A4B9A6923
:103E880042F480429A619A6902F480420092009A50
:103E98009A6942F004029A619B6903F00403019352
:103EA800019B4FF4007304930223059303230793A4
:103EB8001E4C04A92046FDF721FA4FF480630493B1
:103EC80000230593069304A92046FDF717FAD3E7C4
:103ED800154BDA6942F40032DA61DA6902F4003229
:103EE8000292029A9A6942F004029A619B6903F06D
:103EF80004030393039B04230493022305930323DE
:103F080007930A4C04A92046FDF7F8F908230493FF
:103F180000230593069304A92046FDF7EFF9ABE7C4
:103F280000380140004400400010024000080140F1
:103F380000B583B001904FF6FF73012201A9034831
:103F4800FEF782FD019803B05DF804FB4C0B0020DE
:103F5800FFF742FE0B480C490C4A002302E0D458F4
:103F6800C4500433C4188C42F9D3094A094C0023BD
:103F780001E013600432A242FBD300F015F8FFF70A
:103F880035F9704700000020D8090020EC9E000891
:103F9800D8090020380C0020FEE70000014B186803
:103FA800704700BF2800002070B50D4E0D4D761BE0
:103FB800B61006D0002455F8043B01349847A642B1
:103FC800F9D1094E094D05F05BF8761BB61006D0FD
:103FD800002455F8043B01349847A642F9D170BD36
:103FE800E09E0008E09E0008E89E0008E09E0008A9
:103FF800F0B4860746D0541E002A3CD00346CAB205
:1040080001E0013C37D303F8012B9D07F9D1032CBC
:104018002AD9CDB245EA05250F2C45EA054534D9FC
:10402800A4F1100222F00F0C03F1200716096744CF
:1040380003F1100242E9045542E902551032BA422E
:10404800F8D1721C14F00C0F03EB021204F00F06E7
:1040580013D0331F23F003030433134442F8045BE3
:104068009342FBD106F003042CB1CAB21C4403F8F6
:10407800012B9C42FBD1F0BC704734461346002C00
:10408800F3D1F8E714460346C1E71A462646E0E7A7
:104098000FB400B5074983B004AB086853F8042B84
:1040A8008168019300F08CF803B05DF804EB04B06C
:1040B800704700BF28000020F0B5054689B00846C3
:1040C8000C46012700F04EF802262149AA6B0590FC
:1040D80004AB384404940390AC68079702960691A1
:1040E800019322B3636E13F0010FB4F90C309AB246
:1040F80001D1980525D5910406D4626E43F4005386
:1041080022F40052A3816266284601AA214603F0E0
:104118008FF9636E002814BF4FF0FF350A25DA07C0
:1041280002D4A3899B0506D5284609B0F0BD2846C8
:1041380002F0D8FFD6E7A06D03F01EFB284609B0B1
:10414800F0BDA06D03F016FBB4F90C309AB2D2E7BB
:10415800509C0008024B01461868FFF7ADBF00BF2E
:104168002800002020F0030110F00300C0F1000037
:1041780051F8043B00F1040C4FEACC0C6FF000023C
:104188001CBF22FA0CF213434FF0010C4CEA0C2C22
:104198004CEA0C4CA3EB0C0222EA030212EACC1202
:1041A80004BF51F8043B0430F4D0C2F1000102EA24
:1041B8000102B2FA82F2C2F11F0200EBD20070478C
:1041C8002DE9F04FD7B01C468B461746814603F0C1
:1041D800C9FA03680E9418461893FFF7C3FF17909F
:1041E800B9F1000F04D0D9F83830002B00F0EA817B
:1041F800DBF8643013F0010FBBF90C309AB202D12E
:104208009D0540F1B58690040AD4DBF8642043F498
:10421800005322F40051ABF80C309AB2CBF864107A
:10422800110740F1BB80DBF81030002B00F0B6809E
:1042380002F01A030A2B00F0BF800023002100229D
:10424800CDE92B33CDE91A33CDE91C3313931993F8
:104258000A932DAB98462A933B78DA46CDE9141297
:10426800002B00F060813C4604E014F8013F002B6D
:1042780000F0B980252BF8D1E51B40F0B7802378F2
:10428800002B00F0508100230B938DF88B3007939F
:104298004FF0FF33667804F1010B20212B2409939A
:1042A8000BF1010BA6F120035A2B00F2BB80DFE8CB
:1042B80013F0EA02B900B900E302B900B900B90085
:1042C800BF02B900B9006A005202B90033025E02A7
:1042D800B90057025B005B005B005B005B005B00A2
:1042E8005B005B005B00B900B900B900B900B90018
:1042F800B900B9004201B900C1019401420142016B
:104308004201B900B900B900B900AF02B900B9005B
:10431800FB01B900B900B900D501B9007802B900AC
:10432800B900B707B900B900B900B900B900B900B8
:10433800B900B9004201B900C10198014201420126
:104348004201A50298018D01B9009B02B9003A0209
:10435800FF0189028D01B900D50172009207B900E9
:10436800B9009607B90072000022A6F130031BF8C5
:10437800016B02EB820203EB4202A6F13003092B28
:10438800F5D90B928EE70E9B53F8042B002A0B925B
:104398000E93C0F2BE819BF8006081E759464846FB
:1043A80001F05EFD002841F09B83BBF80C2002F071
:1043B8001A030A2B7FF441AFBBF90E30002BFFF62E
:1043C8003CAFDBF86430DE0702D4950541F180810B
:1043D80023463A465946484601F0FEFC0A900A9898
:1043E80057B0BDE8F08FE51B00F09D80DDE92B326A
:1043F80001332A44072BC8E90075CDE92B3206DCC6
:1044080008F108080A9A23782A440A9238E751469C
:1044180048462AAA04F0AEFB002841F00E840DF1AC
:10442800B408EFE7002E7ED0002301211A46089138
:104438008DF8F4608DF88B300D93099312931693D1
:1044480010930C913DAF079B13F0020302D008991B
:1044580002310891079911F084010F9105D10B9948
:1044680008980D1A002D00F39C832C9C72B1012032
:104478002B9A044402440DF18B01072ACDE92B2421
:10448800C8E9001000F30B8408F108086BB1022199
:104498002B9B0C44013323AA072BCDE92B34C8E905
:1044A800002100F30B8408F108080F9B802B00F013
:1044B8007882099B0C9A9D1A002D00F3B282079B03
:1044C800DD0500F119822B9B0C9A01331444072B4C
:1044D800C8E900722C942B9300F3D58308F10808DF
:1044E800079B5D0705D50B9B089A9D1A002D00F3C5
:1044F800F283DDE90A3208998A42ACBF9B185B183F
:104508000A93002C40F0C18200232B930D9B1BB112
:1045180048460D9902F086FE5F460DF1B4083B78D7
:10452800002B7FF4A0AE2C9BD346002B40F0FB87DA
:1045380000232B93B7E20E9B073323F0070319469A
:10454800F1E80223CDE91423DDE9143424F0004412
:104558001D4618460E914FF0FF322146B04BFCF72E
:1045680059FC002840F06F85284621464FF0FF325D
:10457800AB4BFCF731FC002840F06585DDE9140100
:1045880000220023FCF71EFC002841F0E9809DF87A
:104598008B2003200021A34FA34B08900D91472E99
:1045A800C8BF1F46079C0C9024F08004079409910B
:1045B800129116911091002A3FF445AF089B0133E0
:1045C800089340E7484602F08DFD11E6079B9BF8EB
:1045D800006043F02003079362E6079B43F0100353
:1045E8000793079B9C0640F18E840E9B073323F0AC
:1045F80007031946F1E8022314461D460E91002AC6
:1046080073F10003C0F2F884099B0133079B00F0A3
:10461800098323F0800354EA0502089340F00383DA
:10462800099A002A40F004830793002356AF0993A0
:104638000C9353E1002101240E9B0A4653F8040B06
:104648000894CDE90D138DF88B108DF8F4000991BD
:104658001291169110910C943DAFF4E600250E9C32
:104668008DF88B5054F8047B002F00F02386099AAC
:104678001346013300F016872946384603F0A4FB99
:104688000D90002801F0A6812B460D9A0995D21BA2
:104698000C9222EAE27208920E949DF88B200D93F8
:1046A80012931693109386E7079B43F01003079322
:1046B800079B9A0640F148840E9B073323F00703B3
:1046C800F3E802450E93079B23F4806308930023C5
:1046D80000228DF88B20099A1146013100F0DF8005
:1046E800089921F08001079154EA050140F0D5802E
:1046F800002A40F03882002B97D1089B13F0010361
:104708000C9300F0658430230DF257178DF857315C
:10471800E4E00B9B5B420B93079B9BF8006043F024
:1047280004030793BCE5079B9D0600F17084079B73
:10473800DC0600F17B86079B580600F10687079B7D
:10474800990540F173860E9B0A9953F8042B5F462E
:1047580011700E93E3E69BF800608DF88B409FE59F
:10476800079B9BF8006043F08003079398E55A463F
:1047780012F8016B2A2E01F00783A6F13003092BEA
:10478800934698BF002201F26F811BF8016B02EB80
:10479800820203EB4202A6F13003092BF5D90992F4
:1047A80080E5079B43F010030893089B9D0640F1A2
:1047B800BB830E9B073323F00703F3E802450E93F0
:1047C800012385E747F630020E9B079953F8044BFF
:1047D80041F002010E93154B002519937826022308
:1047E8000891ADF88C2073E79BF80060079B6C2E4E
:1047F80000F0418543F01003079351E59BF80060F2
:10480800079B682E00F04D8543F04003079347E56A
:10481800079B9BF8006043F00803079340E500BF3F
:10482800FFFFEF7F549C0008589C0008649C000818
:10483800484602F097FF436818461C93FFF792FC1E
:10484800034648461D461D9302F08CFF82682021CE
:104858001A92002D3FF49FAD1A9B002B3FF49BAD9D
:104868001A9B1B78002B3FF496AD079B9BF80060C2
:1048780043F48063079313E5079B9BF8006043F0BC
:10488800010307930CE59DF88B30002B7FF483AD73
:104898009BF800608DF88B1002E5079A0892012BAF
:1048A80000F0C181022B00F0668156AFE20842EAAF
:1048B8004572E90804F007030D461446303354EAFC
:1048C80005013A4607F8013DF0D108990846C007A6
:1048D80000F1D38256ABDB1B07910C930023099997
:1048E8000D931293169310930C9B9DF88B208B427B
:1048F800B8BF0B4608935EE6652E40F3E580DDE918
:10490800140100220023FCF753FA002800F01B8250
:1049180001212B9BCB4A0B440C44072BCDE92B34AC
:10492800C8E9002100F3678508F10808249B139A59
:10493800934280F218832B9B179A013318991444D9
:10494800072BC8E900122C942B9300F39D8408F1DF
:104958000808139B5D1E002D7FF7C2AD102D40F394
:104968005785B94F10262B9B0F9705E008F10808CB
:10497800103D102D40F34F8501331034072BCDE93E
:104988002B34C8E90076F1DD514648462AAA04F0DE
:10499800F1F8002840F08180DDE92B340DF1B408EE
:1049A800E6E70B9B089A9D1A002D7FF782AD102D24
:1049B80041F3A780A4482146102304462B9A0F9060
:1049C80004E0103D102D08F1080817DD0132103100
:1049D800072ACDE92B21C8E90043F2DD51464846B4
:1049E8002AAA04F0C7F8002857D1DDE92B21103D89
:1049F800102D4FF010030DF1B408E7DC0C4601321E
:104A08000F9B2C44072ACDE92B24C8E9003500F375
:104A18000A84099B0C9A08F108089D1A002D7FF753
:104A28004EAD102D40F37A85874821461023044661
:104A38002B9A0F9004E0103D102D08F1080816DDA0
:104A480001321031072ACDE92B21C8E90043F2DDF4
:104A5800514648462AAA04F08DF8F0B9DDE92B2121
:104A6800103D102D4FF010030DF1B408E8DC0C4692
:104A780001320F9B2C44072ACDE92B24C8E90035C5
:104A880000F3348208F1080819E5514648462AAA75
:104A980004F070F800283FF437ADD3460D9911B1F2
:104AA800484602F0BFFBDBF8643013F0010FBBF897
:104AB8000C3002D1980540F17784590601F11C8029
:104AC8000A9857B0BDE8F08F139B012B40F3B781CC
:104AD80001232B9D1C441D44072D2C94C8F80070FD
:104AE8002B95C8F8043000F3FF8308F10808179BDA
:104AF8000135189A1C44072DCDE92B54C8E9002329
:104B080000F3008408F108080023DDE914010022FD
:104B1800FCF74EF9139B002840F0BD81013B01359D
:104B280001371C44072DCDE92B54C8F80070C8F88C
:104B3800043000F3938308F108081B9A01351444E4
:104B480026AB072DCDE92B54C8E900327FF7C6AC58
:104B5800514648462AAA04F00DF800289DD12C9CFD
:104B68000DF1B408BCE4012B00F0D087022B079BA1
:104B780008937FF49AAE199856AF230943EA057350
:104B8800290904F00F020D461C46835C07F8013D15
:104B980054EA0503F1D1089B079356ABDB1B0C9332
:104BA8009CE6102D40F33887DDE92B211E930B4638
:104BB8003946102437465646CA46894604E0103D11
:104BC800102D08F1080817DD013220491033072A93
:104BD800CDE92B23C8E90014F1DD314650462AAA55
:104BE80003F0C8FF002840F0F883DDE92B23103DCF
:104BF800102D0DF1B408E7DC4846D146B2463E46D2
:104C0800074619461E9B6C1801321049072ACDE940
:104C18002B24C8E9001500F3CF839DF88B2008F1F9
:104C2800080823E40893002D08BF0A2C80F0788335
:104C3800089B3034079301238DF857410C930DF2EC
:104C480057174BE6949C0008A89C0008989C0008FD
:104C58002B9B1799013318980C44072BC8E90001BE
:104C68002C942B9300F3258508F10808002AC0F23C
:104C7800FF86139A01331444072BCDE92B34C8E976
:104C880000727FF72BAC514648462AAA03F072FF00
:104C980000287FF402AF2C9C0DF1B40820E45146A3
:104CA80048462AAA1E9303F065FF00287FF4F5AE54
:104CB8002C9C1E9B0DF1B408FFF7E8BB51464846F3
:104CC8002AAA03F057FF00287FF4E7AE2C9C0DF1C9
:104CD800B408FFF7EABB102D40F3FF8610262B9B84
:104CE80004E0103D102D08F1080817DD0133B94A1A
:104CF8001034072BCDE92B34C8E90026F1DD5146E5
:104D080048462AAA03F036FF00287FF4C6AEDDE93C
:104D18002B34103D102D0DF1B408E7DC0133AD4AFA
:104D28002C44072BCDE92B34C8E900257FF7E1ABEC
:104D3800514648462AAA03F01DFF00287FF4ADAE6D
:104D48002C9CFFF7D6BB249A002A40F31A81109BAB
:104D5800139A9342A8BF1346002B1D460BDD2B9BCD
:104D68002C440133072BC8E900752C942B9300F3CE
:104D7800DB8508F10808109B002DA8BF5B1B002BE2
:104D88001D4600F36783109B3B441E46079B59054D
:104D980000F10185249B139A934203DB079AD207FB
:104DA80040F1CB832B9A1799013218980C44072AA3
:104DB800C8E900012C942B9200F3C38508F1080878
:104DC800139ABD18AD1BD31A9D42A8BF1D46002DCE
:104DD8000BDD2B9A2C440132072AC8E900652C9474
:104DE8002B9200F31D8608F10808002DB4BF1D465C
:104DF8005D1B002D7FF774AB102D40F30983764FB0
:104E080010262B9B0F9705E008F10808103D102D80
:104E180040F3018301331034072BCDE92B34C8E963
:104E28000076F1DD514648462AAA03F0A3FE002881
:104E38007FF433AEDDE92B340DF1B408E6E7079BC8
:104E4800DE073FF545AE01232B9D1C441D44072D6D
:104E58002C94C8F800702B95C8F804307FF76BAE17
:104E6800514648462AAA03F085FE00287FF415AE6D
:104E7800DDE92B540DF1B4085FE6302B3FF48BAE1F
:104E88003023023A07F8013C089956AB9B1A17469B
:104E980007910C9322E55E1E002E7FF74EAE102E72
:104EA80040F34F874C4BCDF824B01027D3460F93CF
:104EB800CA46994605E008F10808103E102E40F34E
:104EC800BF8101351034072DCDE92B54C8E900976F
:104ED800F1DD594650462AAA03F04CFE002840F05E
:104EE800EC85DDE92B540DF1B408E6E75146484658
:104EF8002AAA03F03FFE00287FF4CFAD2C9C0DF1C9
:104F0800B408FFF7DCBA079BD80669D4079B590693
:104F180040F1F6820E9B53F8044B24B2E5170E932A
:104F280022462B46FFF76BBB089BDC067CD4089B0C
:104F3800580640F1CA820E9A012352F8044B002504
:104F48000E92A4B2FFF7C4BB079BDB0674D4079B81
:104F58005F0640F1C9820E9B002553F8044B0E935F
:104F6800A4B2FFF7B0BB079BD8077FF5B9AAE2E464
:104F7800DBF8580002F0FEFBBBF90C309AB2FFF7E1
:104F880042B901202B9B154903440444072BCDE962
:104F98002B34C8E9001000F3AC8408F10808002A93
:104FA8007FF456AE079B139A03F0010313433FF4B3
:104FB80097AA2B9B179A013318991444072BC8E911
:104FC80000122C942B9300F3748308F1080850E620
:104FD80056AF83E4989C0008A89C0008949C00089D
:104FE8000E9B53F8044B2246E5170E932B46002AD6
:104FF80073F10003BFF608AB2D23079A64428DF8BE
:105008008B3065EB450501230892FFF764BB0E9BC7
:105018005F4653F8041B0E930A9BDD171A462B466E
:10502800C1E90023FFF77BBA0E9A012352F8044B1B
:1050380000250E92FFF74CBB0E9B002553F8044B3E
:105048000E93FFF740BBDDE914010B460246FBF760
:10505800E1FE0146002840F0DD85612E00F08285E2
:10506800412E00F07B82099B26F020055A1C0895EA
:1050780000F0CC85472D00F0A385DDE91401079BDE
:1050880043F4807312930B46002BC0F2398600223A
:105098000F931E920D920C90462D0C9A00F07A8474
:1050A800452D4FF002000F9B40F05984099900905C
:1050B8004C1C28A925A8049124A9CDE90210019423
:1050C800484600F0D5FF07460444129B079D079306
:1050D800002200230C980F99FBF76AFE002800F0C5
:1050E8002B832346DB1B1393089B472B00F0F68288
:1050F800089B462B00F07A84249B1093109B089AF7
:10510800013B412A249300F0F5850021F2B2002BDF
:105118008DF89820B6BF2D222B22109B8DF8992050
:10512800B8BFC3F10103092B40F3D5850DF1A70ED4
:1051380072469C46C24C6046114684FB0C234FEADB
:10514800EC72C2EBA30202EB8203ACEB43033033F5
:105158006328944601F8013C01F1FF32EBDC634619
:105168003033D8B28B1E9E4502F8010C40F22886D7
:105178000DF19A0301E012F8010B964503F8010BB3
:10518800F9D10DF1A9030DF19A025B1A134426AA6D
:105198009B1A1B93139B1B9A012B1A440C9240F3E6
:1051A800B2850C9B179A13440C9300231293169301
:1051B80010930C9B25F4806545F4807223EAE37311
:1051C800079208931E9B002B40F0AF829DF88B201E
:1051D8000993FFF7F0B9079B0893FFF7E6BA994BD5
:1051E8001993079B990675D50E9B073323F0070380
:1051F800F3E802450E93079AD7070AD554EA050340
:1052080007D0302342F002028DF88D6007928DF8A6
:105218008C30079A022322F480620892FFF758BA6A
:10522800894B1993DDE7514648462AAA03F0A2FCA8
:1052380000287FF432AC2C9C0DF1B408FFF739B983
:10524800D146DA46DDF824B001350F9B3444072DEA
:10525800CDE92B54C8E900367FF76DAC5146484676
:105268002AAA03F087FC00287FF417ACDDE92B5449
:105278000DF1B40861E443F020039BF80160079343
:105288000BF1010BFFF70CB8514648462AAA03F068
:1052980071FC00287FF401AC2C9C0DF1B408FFF7D9
:1052A80058BB43F400739BF8016007930BF1010BA3
:1052B800FEF7F6BF099B3A46062B28BF0623099737
:1052C8001297169710970D970893604F0E940C93AA
:1052D800FFF771B9079BDA0640F183800E9B002522
:1052E80053F8044B0E9386E7514648462AAA03F022
:1052F80041FC00287FF4D1ABDDE92B540DF1B40853
:10530800FFF7F5BB514648462AAA03F033FC0028AC
:105318007FF4C3ABDDE92B540DF1B408FFF7F4BB00
:105328000022089BCDF81CB003F480630C96CDF8DE
:1053380034A09346CA461E46C14656AFDDF868807B
:105348000BE00A22002320462946FBF7A1FD002D89
:1053580008BF0A2C1BD304460D460A220023204608
:105368002946FBF795FD303207F8012C0BF1010BAC
:10537800013F002EE5D098F800309B45E1D1BBF104
:10538800FF0FDED0002D08BF0A2C80F0EF81CDF88A
:105398006880CDF84CB0C8460C9ED146DDF81CB0EC
:1053A800DDF834A0FFF7F7BBDBF8580002F0E4F9AA
:1053B800BBF80C30FFF781BB514648462AAA1E931A
:1053C80003F0D8FB00287FF468AB9DF88B202C9C59
:1053D8001E9B0DF1B408FFF749B8D146B346FFF755
:1053E8005DBB079B5B0665D50E9B002553F8044BF8
:1053F8000E93A4B2FFE6514648462AAA03F0BAFB28
:1054080000287FF44AAB2C9C0DF1B408FFF78EBA44
:105418000F4A2B9B0F9201330F9A2C44072BCDE98F
:105428002B34C8E900257FF759A82CE40E9B0A996C
:1054380053F8042B5F4611600E93FFF770B800BF56
:1054480067666666649C0008789C00088C9C000867
:10545800A89C0008102B40F393845146BC4ACA46C6
:1054680009971026174689462B9B0F9205E008F1ED
:105478000808103D102D40F32A8201331034072B01
:10548800CDE92B34C8E90076F1DD494650462AAA11
:1054980003F070FB002840F01383DDE92B340DF195
:1054A800B408E6E73846FEF75DFE2B460246099546
:1054B800FFF7EEB8079B002513F4007F0E9B53F807
:1054C800044B0E9318BFE4B295E60E9A089B52F867
:1054D800044B13F4007F4FF000054FF001030E92C8
:1054E80018BFE4B2FFF7F4B8079B002513F4007F58
:1054F8000E9B53F8044B0E9318BFE4B2FFF7E3B8C2
:10550800079B13F4007F0E9B53F8044B18BF64B23B
:10551800E5170E9322462B46FFF771B88C4B2B9A52
:105528000F93FFF7A5BA484651462AAA03F022FB73
:1055380000283EF4FDAFFFF7B6BA139ABD18AD1BAD
:10554800D31A9D42A8BF1D464FE40E9B0A9953F8F3
:10555800042B5F4611800E93FEF7E1BF30238DF8D0
:105568008C3058238DF88D30079B43F00204099B3B
:10557800632B00F3ED8200233DAF0D93079BDDE91C
:10558800141243F4817312931346002B26F020055E
:105598000794C0F255820F93002308950C911E932F
:1055A800612E00F07B83412E7FF476AD24AA0C98FF
:1055B8000F9903F0DFF900224FF07F53FAF7ECFF61
:1055C80004460D4600220023CDE91045FBF7F0FB09
:1055D80008B1012324935F4B0C93099BCDF83CB091
:1055E800013B1396CDF87C90CDF880A02197BA4660
:1055F800DDE910679946DDF830B0CDF8588006E04F
:1056080000220023FBF7D4FB09F1FF39E8B9002297
:10561800514B30463946FAF7BFFF0D460446FBF7B3
:105628000FFC8046FAF74EFF0B46024629462046F5
:10563800FAF7FAFD1BF80830B9F1FF3F5546064660
:105648000F464C460AF8013BDAD13046394600226B
:10565800424BDDF83CB0139ECDF83CA0CDF84C8011
:10566800CDE91001DDE91F9ADDF85880219FFBF78D
:10567800C7FB002840F05082DDE910010022374BBB
:10568800FBF796FB18B1139BDB0700F14582002C52
:1056980008DB30220F99631C0B4401F8012B8B4265
:1056A800FBD10F910F9B079DDB1B1393129B079355
:1056B8001AE5514648462AAA03F05CFA00287FF406
:1056C800ECA9DDE92B34249A0DF1B408FFF7CEBA22
:1056D800DBF8580002F050F8FEF77ABE249BD81C7D
:1056E800109302DB099A934204DD023E26F0200360
:1056F800089303E5109B13998B42C0F2AB81EA072C
:1057080040F1E482179A13440C936E0540F1E1824C
:10571800109B002B00F3948267260C9B23EAE3730B
:1057280008930023129316934CE52D2200238DF83D
:105738008B200993FEF742BF289BA342BFF4D2AC4B
:1057480030215A1C28921970289B9C42F9D8C9E428
:10575800A89C0008789C0008000030400000E03F4A
:105768002D231A468DF88B30FEF713BF1D9B1C990D
:10577800FF1A1A46384603F08DF998F801300BB134
:1057880008F101080A22002320462946FBF780FB7E
:105798004FF0000BDFE5139B4246DDF85880FB18FD
:1057A8000993CDF830B00F972046DDF874B01A9FF2
:1057B800129BB8F1000F2DD0002B6DD1013F08F1DD
:1057C800FF382B9B1C9901335844072BC2E9001B57
:1057D8002C902B9364DC083209993B788D1B9D42F1
:1057E800A8BF1D46002D0ADD2B9B28440133072B3B
:1057F800C2E900652C902B935DDC3B780832002DC4
:10580800B4BF1D465D1B002D15DC1E44129BB8F16C
:10581800000FD1D1002B3FD1139B1A970F9F9046B1
:10582800FB189E42324628BF1A4604461646DDF843
:1058380030B0FFF7AFBA102D40F36A822B991024CD
:105848000B4604E0103D102D02F1080216DD01336D
:10585800B0491030072BCDE92B30C2E90014F1DD37
:10586800514648462AAA03F085F900287FF415A96D
:10587800DDE92B30103D102D2DAAE8DC19464B1C14
:10588800A4492844072BCDE92B30C2E900153EDC9A
:105898003B7808321E44B9E7129B013B129390E70C
:1058A800514648462AAA03F065F900287FF4F5A86E
:1058B8002C982DAA90E7514648462AAA03F05AF98F
:1058C80000287FF4EAA83B782C982DAA97E74A4647
:1058D800D1469246099F01330F9A2C44072BCDE9F4
:1058E8002B34C8E9002500F3428108F10808FFF7C6
:1058F8004ABA514648462AAA03F03CF900287FF4E0
:10590800CCA8249A2C9C0DF1B408FFF748BB51464B
:1059180048462AAA03F02EF900287FF4BEA83B784F
:105928002C982DAA1E4471E7514648462AAA03F02E
:1059380021F900287FF4B1A82C9C0DF1B408FFF7D9
:105948001ABA514648462AAA03F014F900287FF4E7
:10595800A4A8249B2C9C0DF1B408FFF731BA099C2C
:1059680028A9CDE90004049125A824A9CDE90210AD
:10597800484600F07DFB472D07461AD1079D2B4668
:10598800DB0700F1A180129A289B07924722089210
:10599800FFF7A8BB0320099C28A9CDE900040491BE
:1059A80025A824A9CDE902100F9B484600F060FB0A
:1059B8000746099B462D07EB03047FF486AB3B782B
:1059C800302B00F0B081249B129A079D1C4407924B
:1059D800FFF77EBB099B9DF88B2008930C930990D9
:1059E8000E94129016901090FEF7E5BD249A002AA6
:1059F800109240F3AF81099905F001030B4340F081
:105A080047816626109B0C936A0500F11A810C9B4E
:105A180023EAE373089384E6DDE92B21FFF7F3B863
:105A2800514648462AAA03F0A5F800287FF435A86D
:105A3800249B139A2C9C0DF1B408D31AFFF7D5B9FF
:105A480008952D23DDE914121E9302F100430C91F1
:105A58000F93A5E5139B179A9A18109B0C92002B8D
:105A680040F358816726CFE700230993FEF71ABC55
:105A78005542103280F2A1815146264ACA460997FA
:105A88001026174689460F9204E008F10808103DD1
:105A9800102D79DD01331034072BCDE92B34C8E9FB
:105AA8000076F2DD494650462AAA03F063F838B971
:105AB800DDE92B340DF1B408E9E7D146FEF7EEBF76
:105AC800CB46D146FEF7EABF099B079DFC18129BFF
